:020000040000FA
:040000003FEF00F0DE
:060008007182EAED3DF0FB
:100018007180D8CF08F0E8CF09F0E0CF0AF0E1CF3F
:100028000BF0E2CF0CF0D9CF0DF0DACF0EF09EAA8C
:1000380020EF00F022EF00F02FEF00F0ABA227EF47
:1000480000F029EF00F02CEF00F0AB9800F0AB883F
:100058008186B8EC35F00EC0DAFF0DC0D9FF0CC0B0
:10006800E2FF0BC0E1FF0AC0E0FF09C0E8FF08C0DB
:0A007800D8FF7190100098EF3DF0E2
:10060000000000004B494E46494E49545900696E5E
:1006100066696E697479004E414E00696E66006EBF
:10062000616E00686858006C6C5800686864006C03
:100630006C6400686869006C6C690068686E006CC6
:100640006C6E0068686F006C6C6F00686875006C99
:100650006C7500686878006C6C7800256C66006AC0
:1006600058007458007A58006C61006A6400746421
:10067000007A64006C65006C67006A690074690048
:100680007A69006A6E00746E007A6E006A6F007498
:100690006F007A6F006A75007475007A75006A7869
:1006A000007478007A780000BCC0D9FFBDC0DAFFC2
:1006B000DECFF6FFDDCFF7FF0800F550250AD8A4FE
:1006C00064EF03F066EF03F0D2EF17F0BCC0D9FF80
:1006D000BDC0DAFFDE2A000EDD22000E646E000EC1
:1006E000636E63C0F9F064C0FAF0BCC0D9FFBDC04E
:1006F000DAFFDECFF6FFDDCFF7FF0800F5502A0A5C
:10070000D8A485EF03F087EF03F093EF03F0BCC0AC
:10071000D9FFBDC0DAFFDE2A000EDD22000E000187
:10072000FA6F010EF96FBCC0D9FFBDC0DAFFDECF92
:1007300016F0DDCF17F0ABEC33F016C063F017C046
:1007400064F0AAEF03F0BCC0D9FFBDC0DAFFDE2A17
:10075000000EDD22D00E0001C06FFF0EC16FBCC0C5
:10076000D9FFBDC0DAFFDECFF6FFDDCFF7FF08000F
:10077000F550C26FC36BC051C227C151C323C351CF
:100780000AE10A0EC25DD8A0C8EF03F0CBEF03F078
:10079000010ECCEF03F0000ECC6FCD6BCC51CD1120
:1007A000D8A4D5EF03F0D7EF03F0A3EF03F0BCC05C
:1007B000D9FFBDC0DAFFDECFF6FFDDCFF7FF0800BF
:1007C000F550156E166AC0EC3BF015500001D26F63
:1007D000D251D8B4EEEF03F0F0EF03F02AEF04F0BB
:1007E000BCC0D9FFBDC0DAFFDECFC0F0DDCFC1F0A5
:1007F000010EC027000EC123C0C0F6FFC1C0F7FF25
:100800000800F550156E166AC0EC3BF0155000015B
:10081000D36FD351D8B40FEF04F011EF04F02AEFE7
:1008200004F0BCC0D9FFBDC0DAFFDECFC0F0DDCF21
:10083000C1F0020EC027000EC123C0C0F6FFC1C028
:10084000F7FF0800F550156E166AC0EC3BF0155026
:100850000001D46FBCC0D9FFBDC0DAFFDECFF6FF08
:10086000DDCFF7FF0800F550630AD8A43AEF04F093
:100870003CEF04F084EF04F0BCC0D9FFBDC0DAFF48
:10088000DE2A000EDD22F951FA11D8A44AEF04F055
:100890004CEF04F070EF04F0BEC0D9FFBFC0DAFF28
:1008A000DFCFC0F0020EDE26DFCFC1F0000EDD226A
:1008B000C0C0D9FFC1C0DAFFDECFE9F0DDCFEAF07A
:1008C000BAC01AF0BBC01BF0E9C01CF0EAC01DF0B2
:1008D0001EEC35F01AC0EBF01BC0ECF07EEF04F01C
:1008E000BAC01AF0BBC01BF0000E1C6E000E1D6ECD
:1008F0001EEC35F01AC0EBF01BC0ECF0EBC0BAF008
:10090000ECC0BBF00FEF18F0BCC0D9FFBDC0DAFFE0
:10091000DECF0FF0DDCF10F02B0E116E060E126E33
:10092000000E146E030E136E49EC36F00F501010CB
:10093000D8B49DEF04F09FEF04F0BAEF04F0BCC010
:10094000D9FFBDC0DAFFDECF0FF0DDCF10F0330EE0
:10095000116E060E126E000E146E030E136E49EC2D
:1009600036F00F501010D8A4B8EF04F0BAEF04F02E
:1009700003EF05F0030EBCC0D9FFBDC0DAFFDE26D1
:10098000000EDD22BAC05CF0BBC05DF0D90E5E6E19
:10099000000E5F6E36EC2FF05CC0EBF05DC0ECF04B
:1009A0000001F951FA11D8A4D8EF04F0DAEF04F0FD
:1009B0007EEF04F0ECBFE5EF04F0EC5108E1EB054D
:1009C000D8A0E5EF04F0E7EF04F07EEF04F0BEC03E
:1009D000D9FFBFC0DAFFDFCFC0F0020EDE26DFCFC7
:1009E000C1F0000EDD22C0C0D9FFC1C0DAFFDECFEA
:1009F000E9F0DDCFEAF0E9C0D9FFEAC0DAFFD9C0FB
:100A0000DFFF7EEF04F0BCC0D9FFBDC0DAFFDECF50
:100A10000FF0DDCF10F02C0E116E060E126E000ED0
:100A2000146E020E136E49EC36F00F501010D8B44D
:100A30001CEF05F01EEF05F039EF05F0BCC0D9FF43
:100A4000BDC0DAFFDECF0FF0DDCF10F0340E116E37
:100A5000060E126E000E146E020E136E49EC36F086
:100A60000F501010D8A437EF05F039EF05F084EFE0
:100A700005F0020EBCC0D9FFBDC0DAFFDE26000EB5
:100A8000DD22BAC05CF0BBC05DF0D90E5E6E000E18
:100A90005F6E36EC2FF05CC0EBF05DC0ECF0000157
:100AA000F951FA11D8A457EF05F059EF05F07EEF90
:100AB00004F0ECBF64EF05F0EC5108E1EB05D8A0C1
:100AC00064EF05F066EF05F07EEF04F0BEC0D9FFDD
:100AD000BFC0DAFFDFCFC0F0020EDE26DFCFC1F0ED
:100AE000000EDD22C0C0D9FFC1C0DAFFDECFE9F0C1
:100AF000DDCFEAF0E9C0D9FFEAC0DAFFD9C0DEFFF6
:100B0000DAC0DDFF7EEF04F0BCC0D9FFBDC0DAFF64
:100B1000DECFF6FFDDCFF7FF0800F550640AD8B44A
:100B200094EF05F096EF05F0A8EF05F0BCC0D9FFF3
:100B3000BDC0DAFFDECFF6FFDDCFF7FF0800F550CE
:100B4000690AD8A4A6EF05F0A8EF05F0F2EF05F0CA
:100B5000BCC0D9FFBDC0DAFFDE2A000EDD22BAC05C
:100B60005CF0BBC05DF0D90E5E6E000E5F6E36ECC1
:100B70002FF05CC0EBF05DC0ECF00001F951FA1110
:100B8000D8A4C5EF05F0C7EF05F07EEF04F0ECBF89
:100B9000D2EF05F0EC5108E1EB05D8A0D2EF05F05B
:100BA000D4EF05F07EEF04F0BEC0D9FFBFC0DAFF7E
:100BB000DFCFC0F0020EDE26DFCFC1F0000EDD2257
:100BC000C0C0D9FFC1C0DAFFDECFE9F0DDCFEAF067
:100BD000E9C0D9FFEAC0DAFFD9C0DEFFDAC0DDFF25
:100BE0007EEF04F0BCC0D9FFBDC0DAFFDECF0FF04E
:100BF000DDCF10F0300E116E060E126E000E146E68
:100C0000020E136E49EC36F00F501010D8B40BEFF3
:100C100006F00DEF06F028EF06F0BCC0D9FFBDC00E
:100C2000DAFFDECF0FF0DDCF10F0380E116E060EBA
:100C3000126E000E146E020E136E49EC36F00F5059
:100C40001010D8A426EF06F028EF06F077EF06F094
:100C5000020EBCC0D9FFBDC0DAFFDE26000EDD22C9
:100C6000BAC05CF0BBC05DF0D90E5E6E000E5F6E68
:100C700036EC2FF05CC0EBF05DC0ECF00001F951F8
:100C8000FA11D8A446EF06F048EF06F07EEF04F024
:100C9000ECBF53EF06F0EC5108E1EB05D8A053EFA1
:100CA00006F055EF06F07EEF04F0BEC0D9FFBFC0DE
:100CB000DAFFDFCFC0F0020EDE26DFCFC1F0000E7C
:100CC000DD22C0C0D9FFC1C0DAFFDECFE9F0DDCF41
:100CD000EAF0E9C0D9FFEAC0DAFFD9C0DEFFDAC026
:100CE000DEFFDBC0DEFFDCC0DEFF7EEF04F0BCC059
:100CF000D9FFBDC0DAFFDECF0FF0DDCF10F02F0E31
:100D0000116E060E126E000E146E030E136E49EC79
:100D100036F00F501010D8B490EF06F092EF06F0B6
:100D2000ADEF06F0BCC0D9FFBDC0DAFFDECF0FF0DB
:100D3000DDCF10F0370E116E060E126E000E146E1F
:100D4000030E136E49EC36F00F501010D8A4ABEF21
:100D500006F0ADEF06F004EF07F0030EBCC0D9FFBC
:100D6000BDC0DAFFDE26000EDD22BAC05CF0BBC0DB
:100D70005DF0D90E5E6E000E5F6E36EC2FF05CC03B
:100D8000EBF05DC0ECF00001F951FA11D8A4CBEF03
:100D900006F0CDEF06F07EEF04F0ECBFD8EF06F0E2
:100DA000EC5108E1EB05D8A0D8EF06F0DAEF06F039
:100DB0007EEF04F0BEC0D9FFBFC0DAFFDFCFC0F0C6
:100DC000020EDE26DFCFC1F0000EDD22C0C0D9FF4B
:100DD000C1C0DAFFDECFE9F0DDCFEAF0E9C0D9FF2C
:100DE000EAC0DAFFD9C0DEFFDAC0DEFFDBC0DEFF1B
:100DF000DCC0DEFFDDC0DEFFDEC0DEFFDFC0DEFF09
:100E0000E0C0DEFF7EEF04F0BCC0D9FFBDC0DAFF5A
:100E1000DECF0FF0DDCF10F06B0E116E060E126EEE
:100E2000000E146E020E136E49EC36F00F501010C7
:100E3000D8B41DEF07F01FEF07F03AEF07F0BCC082
:100E4000D9FFBDC0DAFFDECF0FF0DDCF10F07A0E94
:100E5000116E060E126E000E146E020E136E49EC29
:100E600036F00F501010D8A438EF07F03AEF07F023
:100E700091EF07F0020EBCC0D9FFBDC0DAFFDE263D
:100E8000000EDD22BAC05CF0BBC05DF0D90E5E6E14
:100E9000000E5F6E36EC2FF05CC0EBF05DC0ECF046
:100EA0000001F951FA11D8A458EF07F05AEF07F0F2
:100EB0007EEF04F0ECBF65EF07F0EC5108E1EB05C5
:100EC000D8A065EF07F067EF07F07EEF04F0BEC033
:100ED000D9FFBFC0DAFFDFCFC0F0020EDE26DFCFC2
:100EE000C1F0000EDD22C0C0D9FFC1C0DAFFDECFE5
:100EF000E9F0DDCFEAF0E9C0D9FFEAC0DAFFD9C0F6
:100F0000DEFFDAC0DEFFDBC0DEFFDCC0DEFFDDC0FF
:100F1000DEFFDEC0DEFFDFC0DEFFE0C0DEFF7EEF13
:100F200004F0BCC0D9FFBDC0DAFFDECF0FF0DDCFCB
:100F300010F06E0E116E060E126E000E146E020E82
:100F4000136E49EC36F00F501010D8B4AAEF07F02A
:100F5000ACEF07F0C7EF07F0BCC0D9FFBDC0DAFFA8
:100F6000DECF0FF0DDCF10F07D0E116E060E126E8B
:100F7000000E146E020E136E49EC36F00F50101076
:100F8000D8A4C5EF07F0C7EF07F016EF08F0020E80
:100F9000BCC0D9FFBDC0DAFFDE26000EDD22BAC01C
:100FA0005CF0BBC05DF0D90E5E6E000E5F6E36EC7D
:100FB0002FF05CC0EBF05DC0ECF00001F951FA11CC
:100FC000D8A4E5EF07F0E7EF07F07EEF04F0ECBF01
:100FD000F2EF07F0EC5108E1EB05D8A0F2EF07F0D3
:100FE000F4EF07F07EEF04F0BEC0D9FFBFC0DAFF18
:100FF000DFCFC0F0020EDE26DFCFC1F0000EDD2213
:10100000C0C0D9FFC1C0DAFFDECFE9F0DDCFEAF022
:10101000E9C0D9FFEAC0DAFFD9C0DEFFDAC0DEFFDF
:10102000DBC0DEFFDCC0DEFF7EEF04F0BCC0D9FF1A
:10103000BDC0DAFFDECF0FF0DDCF10F0710E116E04
:10104000060E126E000E146E020E136E49EC36F090
:101050000F501010D8B42FEF08F031EF08F04CEF1C
:1010600008F0BCC0D9FFBDC0DAFFDECF0FF0DDCF86
:1010700010F0800E116E060E126E000E146E020E2F
:10108000136E49EC36F00F501010D8A44AEF08F058
:101090004CEF08F097EF08F0020EBCC0D9FFBDC0BE
:1010A000DAFFDE26000EDD22BAC05CF0BBC05DF0C8
:1010B000D90E5E6E000E5F6E36EC2FF05CC0EBF06A
:1010C0005DC0ECF00001F951FA11D8A46AEF08F004
:1010D0006CEF08F07EEF04F0ECBF77EF08F0EC5116
:1010E00008E1EB05D8A077EF08F079EF08F07EEF84
:1010F00004F0BEC0D9FFBFC0DAFFDFCFC0F0020EE0
:10110000DE26DFCFC1F0000EDD22C0C0D9FFC1C096
:10111000DAFFDECFE9F0DDCFEAF0E9C0D9FFEAC0BF
:10112000DAFFD9C0DEFFDAC0DDFF7EEF04F0610E2A
:101130000001D219D8B49FEF08F0A1EF08F0BCEF7E
:1011400008F0650ED219D8B4A8EF08F0AAEF08F09D
:10115000BCEF08F0660ED219D8B4B1EF08F0B3EFC7
:1011600008F0BCEF08F0670ED219D8A4BAEF08F067
:10117000BCEF08F00AEF09F0BCC0D9FFBDC0DAFF30
:10118000DE2A000EDD22BAC0A2F0BBC0A3F0D50E4D
:10119000A46F000EA56FD9EC2CF0A2C0EBF0A3C099
:1011A000ECF00001F951FA11D8A4D9EF08F0DBEF07
:1011B00008F07EEF04F0ECBFE6EF08F0EC5108E138
:1011C000EB05D8A0E6EF08F0E8EF08F07EEF04F0BA
:1011D000BEC0D9FFBFC0DAFFDFCFC0F0020EDE26EF
:1011E000DFCFC1F0000EDD22C0C0D9FFC1C0DAFFE1
:1011F000DECFE9F0DDCFEAF0E9C0D9FFEAC0DAFFDF
:10120000D5C0DEFFD6C0DEFFD7C0DEFFD8C0DEFF10
:101210007EEF04F0D20E0F6E000E106E680E116E8F
:10122000060E126E000E146E020E136E49EC36F0AE
:101230000F501010D8B41FEF09F021EF09F066EF3E
:1012400009F0D20E0F6E000E106E740E116E060EA7
:10125000126E000E146E020E136E49EC36F00F5033
:101260001010D8B436EF09F038EF09F066EF09F046
:10127000D20E0F6E000E106E5C0E116E060E126E08
:10128000000E146E020E136E49EC36F00F50101063
:10129000D8B44DEF09F04FEF09F066EF09F0D20E28
:1012A0000F6E000E106E770E116E060E126E000E8F
:1012B000146E020E136E49EC36F00F501010D8A4C5
:1012C00064EF09F066EF09F004EF0AF0BAC0A2F08B
:1012D000BBC0A3F0D50E0001A46F000EA56FD9EC22
:1012E0002CF0A2C0EBF0A3C0ECF00001F951FA1110
:1012F000D8A47DEF09F07FEF09F0FAEF09F0ECBF19
:101300008AEF09F0EC5108E1EB05D8A08AEF09F06B
:101310008CEF09F0FAEF09F0BF0EC06FFF0EC16F3E
:10132000BCC0D9FFBDC0DAFFDECFF6FFDDCFF7FFCF
:101330000800F550C26FC36BC051C227C151C3230F
:10134000C3510AE11A0EC25DD8A0A9EF09F0ACEFB3
:1013500009F0010EADEF09F0000ECE6FCF6BCE514C
:10136000CF11D8B4B6EF09F0B8EF09F0DAEF09F011
:10137000BEC0D9FFBFC0DAFFDFCFC0F0020EDE264D
:10138000DFCFC1F0000EDD22C0C0D9FFC1C0DAFF3F
:10139000DECFE9F0DDCFEAF0E9C0D9FFEAC0DAFF3D
:1013A000D5C0DEFFD6C0DEFFD7C0DEFFD8C0DEFF6F
:1013B000FAEF09F0BEC0D9FFBFC0DAFFDFCFC0F03F
:1013C000020EDE26DFCFC1F0000EDD22C0C0D9FF45
:1013D000C1C0DAFFDECFE9F0DDCFEAF0E9C0D9FF26
:1013E000EAC0DAFFD5C0DEFFD6C0DEFFD7C0DEFF21
:1013F000D8C0DEFF020EBCC0D9FFBDC0DAFFDE26BA
:10140000000EDD227EEF04F0BCC0D9FFBDC0DAFFC4
:10141000DECF0FF0DDCF10F0430E116E060E126E10
:10142000000E146E030E136E49EC36F00F501010C0
:10143000D8A41DEF0AF01FEF0AF068EF0AF0030EC0
:10144000BCC0D9FFBDC0DAFFDE26000EDD22BAC067
:101450005CF0BBC05DF0E10E5E6E000E5F6E40ECB6
:1014600030F05CC0EBF05DC0ECF00001F951FA1116
:10147000D8A43DEF0AF03FEF0AF07EEF04F0ECBF96
:101480004AEF0AF0EC5108E1EB05D8A04AEF0AF068
:101490004CEF0AF07EEF04F0BEC0D9FFBFC0DAFF08
:1014A000DFCFC0F0020EDE26DFCFC1F0000EDD225E
:1014B000C0C0D9FFC1C0DAFFDECFE9F0DDCFEAF06E
:1014C000E9C0D9FFEAC0DAFFE1C0DFFF7EEF04F038
:1014D000BCC0D9FFBDC0DAFFDECF0FF0DDCF10F00A
:1014E000440E116E060E126E000E146E020E136E76
:1014F00049EC36F00F501010D8A481EF0AF083EFBA
:101500000AF0CEEF0AF0020EBCC0D9FFBDC0DAFF70
:10151000DE26000EDD22BAC05CF0BBC05DF0E10E3D
:101520005E6E000E5F6E40EC30F05CC0EBF05DC0B4
:10153000ECF00001F951FA11D8A4A1EF0AF0A3EFE1
:101540000AF07EEF04F0ECBFAEEF0AF0EC5108E1D8
:10155000EB05D8A0AEEF0AF0B0EF0AF07EEF04F092
:10156000BEC0D9FFBFC0DAFFDFCFC0F0020EDE265B
:10157000DFCFC1F0000EDD22C0C0D9FFC1C0DAFF4D
:10158000DECFE9F0DDCFEAF0E9C0D9FFEAC0DAFF4B
:10159000E1C0DEFFE2C0DDFF7EEF04F0BCC0D9FF9A
:1015A000BDC0DAFFDECFF6FFDDCFF7FF0800F55054
:1015B0006F0AD8A4DEEF0AF0E0EF0AF02AEF0BF092
:1015C000BCC0D9FFBDC0DAFFDE2A000EDD22BAC0E2
:1015D0005CF0BBC05DF0E10E5E6E000E5F6E40EC35
:1015E00030F05CC0EBF05DC0ECF00001F951FA1195
:1015F000D8A4FDEF0AF0FFEF0AF07EEF04F0ECBF95
:101600000AEF0BF0EC5108E1EB05D8A00AEF0BF064
:101610000CEF0BF07EEF04F0BEC0D9FFBFC0DAFFC5
:10162000DFCFC0F0020EDE26DFCFC1F0000EDD22DC
:10163000C0C0D9FFC1C0DAFFDECFE9F0DDCFEAF0EC
:10164000E9C0D9FFEAC0DAFFE1C0DEFFE2C0DDFF9A
:101650007EEF04F0BCC0D9FFBDC0DAFFDECF0FF0D3
:10166000DDCF10F0480E116E060E126E000E146ED5
:10167000020E136E49EC36F00F501010D8A443EF51
:101680000BF045EF0BF094EF0BF0020EBCC0D9FF4E
:10169000BDC0DAFFDE26000EDD22BAC05CF0BBC0A2
:1016A0005DF0E10E5E6E000E5F6E40EC30F05CC0EF
:1016B000EBF05DC0ECF00001F951FA11D8A463EF32
:1016C0000BF065EF0BF07EEF04F0ECBF70EF0BF06A
:1016D000EC5108E1EB05D8A070EF0BF072EF0BF0C6
:1016E0007EEF04F0BEC0D9FFBFC0DAFFDFCFC0F08D
:1016F000020EDE26DFCFC1F0000EDD22C0C0D9FF12
:10170000C1C0DAFFDECFE9F0DDCFEAF0E9C0D9FFF2
:10171000EAC0DAFFE1C0DEFFE2C0DEFFE3C0DEFFC9
:10172000E4C0DEFF7EEF04F0BCC0D9FFBDC0DAFF2D
:10173000DECF0FF0DDCF10F0470E116E060E126EE9
:10174000000E146E030E136E49EC36F00F5010109D
:10175000D8A4ADEF0BF0AFEF0BF006EF0CF0030EDB
:10176000BCC0D9FFBDC0DAFFDE26000EDD22BAC044
:101770005CF0BBC05DF0E10E5E6E000E5F6E40EC93
:1017800030F05CC0EBF05DC0ECF00001F951FA11F3
:10179000D8A4CDEF0BF0CFEF0BF07EEF04F0ECBF51
:1017A000DAEF0BF0EC5108E1EB05D8A0DAEF0BF023
:1017B000DCEF0BF07EEF04F0BEC0D9FFBFC0DAFF54
:1017C000DFCFC0F0020EDE26DFCFC1F0000EDD223B
:1017D000C0C0D9FFC1C0DAFFDECFE9F0DDCFEAF04B
:1017E000E9C0D9FFEAC0DAFFE1C0DEFFE2C0DEFFF8
:1017F000E3C0DEFFE4C0DEFFE5C0DEFFE6C0DEFFE3
:10180000E7C0DEFFE8C0DEFF7EEF04F0BCC0D9FF1A
:10181000BDC0DAFFDECF0FF0DDCF10F08C0E116E01
:10182000060E126E000E146E020E136E49EC36F0A8
:101830000F501010D8A41FEF0CF021EF0CF078EF30
:101840000CF0020EBCC0D9FFBDC0DAFFDE26000ED0
:10185000DD22BAC05CF0BBC05DF0E10E5E6E000E32
:101860005F6E40EC30F05CC0EBF05DC0ECF000016E
:10187000F951FA11D8A43FEF0CF041EF0CF07EEFD4
:1018800004F0ECBF4CEF0CF0EC5108E1EB05D8A0F4
:101890004CEF0CF04EEF0CF07EEF04F0BEC0D9FF21
:1018A000BFC0DAFFDFCFC0F0020EDE26DFCFC1F00F
:1018B000000EDD22C0C0D9FFC1C0DAFFDECFE9F0E3
:1018C000DDCFEAF0E9C0D9FFEAC0DAFFE1C0DEFF10
:1018D000E2C0DEFFE3C0DEFFE4C0DEFFE5C0DEFF06
:1018E000E6C0DEFFE7C0DEFFE8C0DEFF7EEF04F00B
:1018F000BCC0D9FFBDC0DAFFDECF0FF0DDCF10F0E6
:101900008F0E116E060E126E000E146E020E136E06
:1019100049EC36F00F501010D8A491EF0CF093EF73
:101920000CF0E2EF0CF0020EBCC0D9FFBDC0DAFF34
:10193000DE26000EDD22BAC05CF0BBC05DF0E10E19
:101940005E6E000E5F6E40EC30F05CC0EBF05DC090
:10195000ECF00001F951FA11D8A4B1EF0CF0B3EF9B
:101960000CF07EEF04F0ECBFBEEF0CF0EC5108E1A0
:10197000EB05D8A0BEEF0CF0C0EF0CF07EEF04F04A
:10198000BEC0D9FFBFC0DAFFDFCFC0F0020EDE2637
:10199000DFCFC1F0000EDD22C0C0D9FFC1C0DAFF29
:1019A000DECFE9F0DDCFEAF0E9C0D9FFEAC0DAFF27
:1019B000E1C0DEFFE2C0DEFFE3C0DEFFE4C0DEFF29
:1019C0007EEF04F0BCC0D9FFBDC0DAFFDECF0FF060
:1019D000DDCF10F0920E116E060E126E000E146E18
:1019E000020E136E49EC36F00F501010D8A4FBEF26
:1019F0000CF0FDEF0CF048EF0DF0020EBCC0D9FF6B
:101A0000BDC0DAFFDE26000EDD22BAC05CF0BBC02E
:101A10005DF0E10E5E6E000E5F6E40EC30F05CC07B
:101A2000EBF05DC0ECF00001F951FA11D8A41BEF06
:101A30000DF01DEF0DF07EEF04F0ECBF28EF0DF080
:101A4000EC5108E1EB05D8A028EF0DF02AEF0DF0DE
:101A50007EEF04F0BEC0D9FFBFC0DAFFDFCFC0F019
:101A6000020EDE26DFCFC1F0000EDD22C0C0D9FF9E
:101A7000C1C0DAFFDECFE9F0DDCFEAF0E9C0D9FF7F
:101A8000EAC0DAFFE1C0DEFFE2C0DDFF7EEF04F076
:101A9000BCC0D9FFBDC0DAFFDECF0FF0DDCF10F044
:101AA0003B0E116E060E126E000E146E030E136EB8
:101AB00049EC36F00F501010D8A461EF0DF063EF31
:101AC0000DF08CEF0DF0030EBCC0D9FFBDC0DAFFE6
:101AD000DE26000EDD22BEC0D9FFBFC0DAFFDFCF99
:101AE000C0F0020EDE26DFCFC1F0000EDD22C0C046
:101AF000D9FFC1C0DAFFDECFE9F0DDCFEAF0E9C0FF
:101B0000D9FFEAC0DAFFF7C0DFFF000E0001BB6FAC
:101B1000000EBA6F0FEF18F0BCC0D9FFBDC0DAFFDE
:101B2000DECF0FF0DDCF10F03C0E116E060E126E00
:101B3000000E146E020E136E49EC36F00F501010AA
:101B4000D8A4A5EF0DF0A7EF0DF0CDEF0DF0020E2C
:101B5000BCC0D9FFBDC0DAFFDE26000EDD22BEC04C
:101B6000D9FFBFC0DAFFDFCFC0F0020EDE26DFCF25
:101B7000C1F0000EDD22C0C0D9FFC1C0DAFFDECF48
:101B8000E9F0DDCFEAF0E9C0D9FFEAC0DAFFF7C03B
:101B9000DEFFF8C0DDFF85EF0DF0BCC0D9FFBDC092
:101BA000DAFFDECFF6FFDDCFF7FF0800F5506E0A53
:101BB000D8A4DDEF0DF0DFEF0DF004EF0EF0BCC0A8
:101BC000D9FFBDC0DAFFDE2A000EDD22BEC0D9FF7C
:101BD000BFC0DAFFDFCFC0F0020EDE26DFCFC1F0DC
:101BE000000EDD22C0C0D9FFC1C0DAFFDECFE9F0B0
:101BF000DDCFEAF0E9C0D9FFEAC0DAFFF7C0DEFFC7
:101C0000F8C0DDFF85EF0DF0BCC0D9FFBDC0DAFF25
:101C1000DECF0FF0DDCF10F0400E116E060E126E0B
:101C2000000E146E020E136E49EC36F00F501010B9
:101C3000D8A41DEF0EF01FEF0EF053EF0EF0020EC2
:101C4000BCC0D9FFBDC0DAFFDE26000EDD22BEC05B
:101C5000D9FFBFC0DAFFDFCFC0F0020EDE26DFCF34
:101C6000C1F0000EDD22C0C0D9FFC1C0DAFFDECF57
:101C7000E9F0DDCFEAF0F7C0C0F0F8C0C1F0000E27
:101C80000001C1BFFF0EC26FC36FE9C0D9FFEAC038
:101C9000DAFFC0C0DEFFC1C0DEFFC2C0DEFFC3C0CE
:101CA000DEFF85EF0DF0BCC0D9FFBDC0DAFFDECF8F
:101CB0000FF0DDCF10F03F0E116E060E126E000E0B
:101CC000146E030E136E49EC36F00F501010D8A4AA
:101CD0006CEF0EF06EEF0EF0AEEF0EF0030EBCC028
:101CE000D9FFBDC0DAFFDE26000EDD22BEC0D9FF5F
:101CF000BFC0DAFFDFCFC0F0020EDE26DFCFC1F0BB
:101D0000000EDD22C0C0D9FFC1C0DAFFDECFE9F08E
:101D1000DDCFEAF0F7C0C0F0F8C0C1F0000E00015E
:101D2000C1BFFF0EC26FC36FC46FC56FC66FC76FF1
:101D3000E9C0D9FFEAC0DAFFC0C0DEFFC1C0DEFFE4
:101D4000C2C0DEFFC3C0DEFFC4C0DEFFC5C0DEFF11
:101D5000C6C0DEFFC7C0DEFF85EF0DF0BCC0D9FFF7
:101D6000BDC0DAFFDECF0FF0DDCF10F0830E116EB5
:101D7000060E126E000E146E020E136E49EC36F053
:101D80000F501010D8A4C7EF0EF0C9EF0EF009EFF6
:101D90000FF0020EBCC0D9FFBDC0DAFFDE26000E78
:101DA000DD22BEC0D9FFBFC0DAFFDFCFC0F0020E18
:101DB000DE26DFCFC1F0000EDD22C0C0D9FFC1C0DA
:101DC000DAFFDECFE9F0DDCFEAF0F7C0C0F0F8C00F
:101DD000C1F0000E0001C1BFFF0EC26FC36FC46F20
:101DE000C56FC66FC76FE9C0D9FFEAC0DAFFC0C0D0
:101DF000DEFFC1C0DEFFC2C0DEFFC3C0DEFFC4C065
:101E0000DEFFC5C0DEFFC6C0DEFFC7C0DEFF85EF58
:101E10000DF0BCC0D9FFBDC0DAFFDECF0FF0DDCFC3
:101E200010F0860E116E060E126E000E146E020E6B
:101E3000136E49EC36F00F501010D8A422EF0FF0BB
:101E400024EF0FF058EF0FF0020EBCC0D9FFBDC059
:101E5000DAFFDE26000EDD22BEC0D9FFBFC0DAFFEA
:101E6000DFCFC0F0020EDE26DFCFC1F0000EDD2294
:101E7000C0C0D9FFC1C0DAFFDECFE9F0DDCFEAF0A4
:101E8000F7C0C0F0F8C0C1F0000E0001C1BFFF0EE6
:101E9000C26FC36FE9C0D9FFEAC0DAFFC0C0DEFF7E
:101EA000C1C0DEFFC2C0DEFFC3C0DEFF85EF0DF0A4
:101EB000BCC0D9FFBDC0DAFFDECF0FF0DDCF10F020
:101EC000890E116E060E126E000E146E020E136E47
:101ED00049EC36F00F501010D8A471EF0FF073EFEB
:101EE0000FF099EF0FF0020EBCC0D9FFBDC0DAFFB2
:101EF000DE26000EDD22BEC0D9FFBFC0DAFFDFCF75
:101F0000C0F0020EDE26DFCFC1F0000EDD22C0C021
:101F1000D9FFC1C0DAFFDECFE9F0DDCFEAF0E9C0DA
:101F2000D9FFEAC0DAFFF7C0DEFFF8C0DDFF85EFBA
:101F30000DF0BCC0D9FFBDC0DAFFDECFF6FFDDCFAC
:101F4000F7FF0800F550700AD8A4A9EF0FF0ABEF27
:101F50000FF0F9EF0FF0BCC0D9FFBDC0DAFFDE2AE9
:101F6000000EDD22BAC05CF0BBC05DF0E10E5E6E1B
:101F7000000E5F6ED4EC32F05CC0EBF05DC0ECF0B4
:101F80000001F951FA11D8A4C8EF0FF0CAEF0FF011
:101F90007EEF04F0ECBFD5EF0FF0EC5108E1EB055C
:101FA000D8A0D5EF0FF0D7EF0FF07EEF04F0BEC052
:101FB000D9FFBFC0DAFFDFCFC0F0020EDE26DFCFD1
:101FC000C1F0000EDD22C0C0D9FFC1C0DAFFDECFF4
:101FD000CAF0DDCFCBF0CAC0D9FFCBC0DAFFE1C079
:101FE000DEFFE2C0DEFFE3C0DEFFE4C0DEFF7EEF27
:101FF00004F0BCC0D9FFBDC0DAFFDECFF6FFDDCFF5
:10200000F7FF0800F550730AD8A409EF10F00BEFA2
:1020100010F050EF10F0BCC0D9FFBDC0DAFFDE2ACF
:10202000000EDD220001F951FA11D8A41AEF10F0C8
:102030001CEF10F040EF10F0BEC0D9FFBFC0DAFFB8
:10204000DFCFC0F0020EDE26DFCFC1F0000EDD22B2
:10205000C0C0D9FFC1C0DAFFDECFC8F0DDCFC9F004
:10206000BAC025F0BBC026F0C8C027F0C9C028F010
:1020700073EC34F025C0EBF026C0ECF07EEF04F0FA
:10208000BAC025F0BBC026F0000E276E000E286EE9
:1020900073EC34F025C0EBF026C0ECF07EEF04F0DA
:1020A000BCC0D9FFBDC0DAFFDECF0FF0DDCF10F02E
:1020B0004B0E116E060E126E000E146E030E136E92
:1020C00049EC36F00F501010D8A469EF10F06BEF08
:1020D00010F0B4EF10F0030EBCC0D9FFBDC0DAFFA2
:1020E000DE26000EDD22BAC05CF0BBC05DF0E10E62
:1020F0005E6E000E5F6E2CEC2EF05CC0EBF05DC0EF
:10210000ECF00001F951FA11D8A489EF10F08BEF2F
:1021100010F07EEF04F0ECBF96EF10F0EC5108E108
:10212000EB05D8A096EF10F098EF10F07EEF04F0DA
:10213000BEC0D9FFBFC0DAFFDFCFC0F0020EDE267F
:10214000DFCFC1F0000EDD22C0C0D9FFC1C0DAFF71
:10215000DECFE9F0DDCFEAF0E9C0D9FFEAC0DAFF6F
:10216000E1C0DFFF7EEF04F0BCC0D9FFBDC0DAFFE5
:10217000DECF0FF0DDCF10F04C0E116E060E126E9A
:10218000000E146E020E136E49EC36F00F50101054
:10219000D8A4CDEF10F0CFEF10F01AEF11F0020E2F
:1021A000BCC0D9FFBDC0DAFFDE26000EDD22BAC0FA
:1021B0005CF0BBC05DF0E10E5E6E000E5F6E2CEC5D
:1021C0002EF05CC0EBF05DC0ECF00001F951FA11AB
:1021D000D8A4EDEF10F0EFEF10F07EEF04F0ECBFBD
:1021E000FAEF10F0EC5108E1EB05D8A0FAEF10F08F
:1021F000FCEF10F07EEF04F0BEC0D9FFBFC0DAFFE5
:10220000DFCFC0F0020EDE26DFCFC1F0000EDD22F0
:10221000C0C0D9FFC1C0DAFFDECFE9F0DDCFEAF000
:10222000E9C0D9FFEAC0DAFFE1C0DEFFE2C0DDFFAE
:102230007EEF04F0BCC0D9FFBDC0DAFFDECFF6FFF1
:10224000DDCFF7FF0800F550750AD8A42AEF11F08A
:102250002CEF11F076EF11F0BCC0D9FFBDC0DAFF52
:10226000DE2A000EDD22BAC05CF0BBC05DF0E10EDC
:102270005E6E000E5F6E2CEC2EF05CC0EBF05DC06D
:10228000ECF00001F951FA11D8A449EF11F04BEF2D
:1022900011F07EEF04F0ECBF56EF11F0EC5108E1C5
:1022A000EB05D8A056EF11F058EF11F07EEF04F0D7
:1022B000BEC0D9FFBFC0DAFFDFCFC0F0020EDE26FE
:1022C000DFCFC1F0000EDD22C0C0D9FFC1C0DAFFF0
:1022D000DECFE9F0DDCFEAF0E9C0D9FFEAC0DAFFEE
:1022E000E1C0DEFFE2C0DDFF7EEF04F0BCC0D9FF3D
:1022F000BDC0DAFFDECF0FF0DDCF10F0500E116E53
:10230000060E126E000E146E020E136E49EC36F0BD
:102310000F501010D8A48FEF11F091EF11F0E0EFF3
:1023200011F0020EBCC0D9FFBDC0DAFFDE26000EE0
:10233000DD22BAC05CF0BBC05DF0E10E5E6E000E47
:102340005F6E2CEC2EF05CC0EBF05DC0ECF0000199
:10235000F951FA11D8A4AFEF11F0B1EF11F07EEFFF
:1023600004F0ECBFBCEF11F0EC5108E1EB05D8A094
:10237000BCEF11F0BEEF11F07EEF04F0BEC0D9FF4C
:10238000BFC0DAFFDFCFC0F0020EDE26DFCFC1F024
:10239000000EDD22C0C0D9FFC1C0DAFFDECFE9F0F8
:1023A000DDCFEAF0E9C0D9FFEAC0DAFFE1C0DEFF25
:1023B000E2C0DEFFE3C0DEFFE4C0DEFF7EEF04F03C
:1023C000BCC0D9FFBDC0DAFFDECF0FF0DDCF10F00B
:1023D0004F0E116E060E126E000E146E030E136E6B
:1023E00049EC36F00F501010D8A4F9EF11F0FBEFC4
:1023F00011F052EF12F0030EBCC0D9FFBDC0DAFFDE
:10240000DE26000EDD22BAC05CF0BBC05DF0E10E3E
:102410005E6E000E5F6E2CEC2EF05CC0EBF05DC0CB
:10242000ECF00001F951FA11D8A419EF12F01BEFEA
:1024300012F07EEF04F0ECBF26EF12F0EC5108E151
:10244000EB05D8A026EF12F028EF12F07EEF04F093
:10245000BEC0D9FFBFC0DAFFDFCFC0F0020EDE265C
:10246000DFCFC1F0000EDD22C0C0D9FFC1C0DAFF4E
:10247000DECFE9F0DDCFEAF0E9C0D9FFEAC0DAFF4C
:10248000E1C0DEFFE2C0DEFFE3C0DEFFE4C0DEFF4E
:10249000E5C0DEFFE6C0DEFFE7C0DEFFE8C0DEFF2E
:1024A0007EEF04F0BCC0D9FFBDC0DAFFDECF0FF075
:1024B000DDCF10F0950E116E060E126E000E146E2A
:1024C000020E136E49EC36F00F501010D8A46BEFCB
:1024D00012F06DEF12F0C4EF12F0020EBCC0D9FF83
:1024E000BDC0DAFFDE26000EDD22BAC05CF0BBC044
:1024F0005DF0E10E5E6E000E5F6E2CEC2EF05CC0A7
:10250000EBF05DC0ECF00001F951FA11D8A48BEFAB
:1025100012F08DEF12F07EEF04F0ECBF98EF12F0A6
:10252000EC5108E1EB05D8A098EF12F09AEF12F009
:102530007EEF04F0BEC0D9FFBFC0DAFFDFCFC0F02E
:10254000020EDE26DFCFC1F0000EDD22C0C0D9FFB3
:10255000C1C0DAFFDECFE9F0DDCFEAF0E9C0D9FF94
:10256000EAC0DAFFE1C0DEFFE2C0DEFFE3C0DEFF6B
:10257000E4C0DEFFE5C0DEFFE6C0DEFFE7C0DEFF51
:10258000E8C0DEFF7EEF04F0BCC0D9FFBDC0DAFFBB
:10259000DECF0FF0DDCF10F0980E116E060E126E2A
:1025A000000E146E020E136E49EC36F00F50101030
:1025B000D8A4DDEF12F0DFEF12F02EEF13F0020ED1
:1025C000BCC0D9FFBDC0DAFFDE26000EDD22BAC0D6
:1025D0005CF0BBC05DF0E10E5E6E000E5F6E2CEC39
:1025E0002EF05CC0EBF05DC0ECF00001F951FA1187
:1025F000D8A4FDEF12F0FFEF12F07EEF04F0ECBF75
:102600000AEF13F0EC5108E1EB05D8A00AEF13F044
:102610000CEF13F07EEF04F0BEC0D9FFBFC0DAFFAD
:10262000DFCFC0F0020EDE26DFCFC1F0000EDD22CC
:10263000C0C0D9FFC1C0DAFFDECFE9F0DDCFEAF0DC
:10264000E9C0D9FFEAC0DAFFE1C0DEFFE2C0DEFF89
:10265000E3C0DEFFE4C0DEFF7EEF04F0BCC0D9FFC4
:10266000BDC0DAFFDECF0FF0DDCF10F09B0E116E94
:10267000060E126E000E146E020E136E49EC36F04A
:102680000F501010D8A447EF13F049EF13F094EF58
:1026900013F0020EBCC0D9FFBDC0DAFFDE26000E6B
:1026A000DD22BAC05CF0BBC05DF0E10E5E6E000ED4
:1026B0005F6E2CEC2EF05CC0EBF05DC0ECF0000126
:1026C000F951FA11D8A467EF13F069EF13F07EEF18
:1026D00004F0ECBF74EF13F0EC5108E1EB05D8A067
:1026E00074EF13F076EF13F07EEF04F0BEC0D9FF65
:1026F000BFC0DAFFDFCFC0F0020EDE26DFCFC1F0B1
:10270000000EDD22C0C0D9FFC1C0DAFFDECFE9F084
:10271000DDCFEAF0E9C0D9FFEAC0DAFFE1C0DEFFB1
:10272000E2C0DDFF7EEF04F0BCC0D9FFBDC0DAFF20
:10273000DECF0FF0DDCF10F0530E116E060E126ECD
:10274000000E146E030E136E49EC36F00F5010108D
:10275000D8B4ADEF13F0AFEF13F0CAEF13F0BCC075
:10276000D9FFBDC0DAFFDECF0FF0DDCF10F0230EB2
:10277000116E060E126E000E146E030E136E49ECEF
:1027800036F00F501010D8A4C8EF13F0CAEF13F0B2
:1027900013EF14F0030EBCC0D9FFBDC0DAFFDE2674
:1027A000000EDD22BAC05CF0BBC05DF0E10E5E6ED3
:1027B000000E5F6ED4EC32F05CC0EBF05DC0ECF06C
:1027C0000001F951FA11D8A4E8EF13F0EAEF13F081
:1027D0007EEF04F0ECBFF5EF13F0EC5108E1EB05F0
:1027E000D8A0F5EF13F0F7EF13F07EEF04F0BEC0C2
:1027F000D9FFBFC0DAFFDFCFC0F0020EDE26DFCF89
:10280000C1F0000EDD22C0C0D9FFC1C0DAFFDECFAB
:10281000E9F0DDCFEAF0E9C0D9FFEAC0DAFFE1C0B4
:10282000DFFF7EEF04F0BCC0D9FFBDC0DAFFDECF12
:102830000FF0DDCF10F0540E116E060E126E000E6A
:10284000146E020E136E49EC36F00F501010D8B40F
:102850002CEF14F02EEF14F049EF14F0BCC0D9FFA8
:10286000BDC0DAFFDECF0FF0DDCF10F0240E116E09
:10287000060E126E000E146E020E136E49EC36F048
:102880000F501010D8A447EF14F049EF14F094EF54
:1028900014F0020EBCC0D9FFBDC0DAFFDE26000E68
:1028A000DD22BAC05CF0BBC05DF0E10E5E6E000ED2
:1028B0005F6ED4EC32F05CC0EBF05DC0ECF0000178
:1028C000F951FA11D8A467EF14F069EF14F07EEF14
:1028D00004F0ECBF74EF14F0EC5108E1EB05D8A064
:1028E00074EF14F076EF14F07EEF04F0BEC0D9FF61
:1028F000BFC0DAFFDFCFC0F0020EDE26DFCFC1F0AF
:10290000000EDD22C0C0D9FFC1C0DAFFDECFE9F082
:10291000DDCFEAF0E9C0D9FFEAC0DAFFE1C0DEFFAF
:10292000E2C0DDFF7EEF04F0BCC0D9FFBDC0DAFF1E
:10293000DECFF6FFDDCFF7FF0800F550780AD8B4F8
:10294000A4EF14F0A6EF14F0B8EF14F0BCC0D9FF58
:10295000BDC0DAFFDECFF6FFDDCFF7FF0800F55090
:10296000580AD8A4B6EF14F0B8EF14F002EF15F03F
:10297000BCC0D9FFBDC0DAFFDE2A000EDD22BAC01E
:102980005CF0BBC05DF0E10E5E6E000E5F6ED4ECDD
:1029900032F05CC0EBF05DC0ECF00001F951FA11CF
:1029A000D8A4D5EF14F0D7EF14F07EEF04F0ECBF0D
:1029B000E2EF14F0EC5108E1EB05D8A0E2EF14F0DF
:1029C000E4EF14F07EEF04F0BEC0D9FFBFC0DAFF21
:1029D000DFCFC0F0020EDE26DFCFC1F0000EDD2219
:1029E000C0C0D9FFC1C0DAFFDECFE9F0DDCFEAF029
:1029F000E9C0D9FFEAC0DAFFE1C0DEFFE2C0DDFFD7
:102A00007EEF04F0BCC0D9FFBDC0DAFFDECF0FF00F
:102A1000DDCF10F0580E116E060E126E000E146E01
:102A2000020E136E49EC36F00F501010D8B41BEFA5
:102A300015F01DEF15F038EF15F0BCC0D9FFBDC083
:102A4000DAFFDECF0FF0DDCF10F0280E116E060E8C
:102A5000126E000E146E020E136E49EC36F00F501B
:102A60001010D8A436EF15F038EF15F087EF15F0F9
:102A7000020EBCC0D9FFBDC0DAFFDE26000EDD228B
:102A8000BAC05CF0BBC05DF0E10E5E6E000E5F6E22
:102A9000D4EC32F05CC0EBF05DC0ECF00001F95119
:102AA000FA11D8A456EF15F058EF15F07EEF04F0A8
:102AB000ECBF63EF15F0EC5108E1EB05D8A063EF34
:102AC00015F065EF15F07EEF04F0BEC0D9FFBFC072
:102AD000DAFFDFCFC0F0020EDE26DFCFC1F0000E3E
:102AE000DD22C0C0D9FFC1C0DAFFDECFE9F0DDCF03
:102AF000EAF0E9C0D9FFEAC0DAFFE1C0DEFFE2C0D8
:102B0000DEFFE3C0DEFFE4C0DEFF7EEF04F0BCC00A
:102B1000D9FFBDC0DAFFDECF0FF0DDCF10F0570ECA
:102B2000116E060E126E000E146E030E136E49EC3B
:102B300036F00F501010D8B4A0EF15F0A2EF15F03A
:102B4000BDEF15F0BCC0D9FFBDC0DAFFDECF0FF07E
:102B5000DDCF10F0270E116E060E126E000E146EF1
:102B6000030E136E49EC36F00F501010D8A4BBEFD3
:102B700015F0BDEF15F014EF16F0030EBCC0D9FF31
:102B8000BDC0DAFFDE26000EDD22BAC05CF0BBC09D
:102B90005DF0E10E5E6E000E5F6ED4EC32F05CC054
:102BA000EBF05DC0ECF00001F951FA11D8A4DBEFB5
:102BB00015F0DDEF15F07EEF04F0ECBFE8EF15F057
:102BC000EC5108E1EB05D8A0E8EF15F0EAEF15F0BD
:102BD0007EEF04F0BEC0D9FFBFC0DAFFDFCFC0F088
:102BE000020EDE26DFCFC1F0000EDD22C0C0D9FF0D
:102BF000C1C0DAFFDECFE9F0DDCFEAF0E9C0D9FFEE
:102C0000EAC0DAFFE1C0DEFFE2C0DEFFE3C0DEFFC4
:102C1000E4C0DEFFE5C0DEFFE6C0DEFFE7C0DEFFAA
:102C2000E8C0DEFF7EEF04F0BCC0D9FFBDC0DAFF14
:102C3000DECF0FF0DDCF10F09E0E116E060E126E7D
:102C4000000E146E020E136E49EC36F00F50101089
:102C5000D8B42DEF16F02FEF16F04AEF16F0BCC0E7
:102C6000D9FFBDC0DAFFDECF0FF0DDCF10F05F0E71
:102C7000116E060E126E000E146E020E136E49ECEB
:102C800036F00F501010D8A448EF16F04AEF16F0A7
:102C9000A1EF16F0020EBCC0D9FFBDC0DAFFDE26E0
:102CA000000EDD22BAC05CF0BBC05DF0E10E5E6ECE
:102CB000000E5F6ED4EC32F05CC0EBF05DC0ECF067
:102CC0000001F951FA11D8A468EF16F06AEF16F076
:102CD0007EEF04F0ECBF75EF16F0EC5108E1EB0568
:102CE000D8A075EF16F077EF16F07EEF04F0BEC0B7
:102CF000D9FFBFC0DAFFDFCFC0F0020EDE26DFCF84
:102D0000C1F0000EDD22C0C0D9FFC1C0DAFFDECFA6
:102D1000E9F0DDCFEAF0E9C0D9FFEAC0DAFFE1C0AF
:102D2000DEFFE2C0DEFFE3C0DEFFE4C0DEFFE5C0A1
:102D3000DEFFE6C0DEFFE7C0DEFFE8C0DEFF7EEFBD
:102D400004F0BCC0D9FFBDC0DAFFDECF0FF0DDCF8D
:102D500010F0A10E116E060E126E000E146E020E11
:102D6000136E49EC36F00F501010D8B4BAEF16F0CD
:102D7000BCEF16F0D7EF16F0BCC0D9FFBDC0DAFF2C
:102D8000DECF0FF0DDCF10F0620E116E060E126E68
:102D9000000E146E020E136E49EC36F00F50101038
:102DA000D8A4D5EF16F0D7EF16F026EF17F0020EE5
:102DB000BCC0D9FFBDC0DAFFDE26000EDD22BAC0DE
:102DC0005CF0BBC05DF0E10E5E6E000E5F6ED4EC99
:102DD00032F05CC0EBF05DC0ECF00001F951FA118B
:102DE000D8A4F5EF16F0F7EF16F07EEF04F0ECBF85
:102DF00002EF17F0EC5108E1EB05D8A002EF17F055
:102E000004EF17F07EEF04F0BEC0D9FFBFC0DAFFB9
:102E1000DFCFC0F0020EDE26DFCFC1F0000EDD22D4
:102E2000C0C0D9FFC1C0DAFFDECFE9F0DDCFEAF0E4
:102E3000E9C0D9FFEAC0DAFFE1C0DEFFE2C0DEFF91
:102E4000E3C0DEFFE4C0DEFF7EEF04F0BCC0D9FFCC
:102E5000BDC0DAFFDECF0FF0DDCF10F0A40E116E93
:102E6000060E126E000E146E020E136E49EC36F052
:102E70000F501010D8B43FEF17F041EF17F05CEF90
:102E800017F0BCC0D9FFBDC0DAFFDECF0FF0DDCF39
:102E900010F0650E116E060E126E000E146E020E0C
:102EA000136E49EC36F00F501010D8A45AEF17F0FB
:102EB0005CEF17F0A7EF17F0020EBCC0D9FFBDC042
:102EC000DAFFDE26000EDD22BAC05CF0BBC05DF08A
:102ED000E10E5E6E000E5F6ED4EC32F05CC0EBF083
:102EE0005DC0ECF00001F951FA11D8A47AEF17F0A7
:102EF0007CEF17F07EEF04F0ECBF87EF17F0EC519A
:102F000008E1EB05D8A087EF17F089EF17F07EEF07
:102F100004F0BEC0D9FFBFC0DAFFDFCFC0F0020EA1
:102F2000DE26DFCFC1F0000EDD22C0C0D9FFC1C058
:102F3000DAFFDECFE9F0DDCFEAF0E9C0D9FFEAC081
:102F4000DAFFE1C0DEFFE2C0DDFF7EEF04F0BCC0CF
:102F5000D9FFBDC0DAFFDECFF6FFDDCFF7FF0800F7
:102F6000F550250AD8A4B7EF17F0B9EF17F0C9EF5D
:102F700017F0BCC0D9FFBDC0DAFFDE2A000EDD228B
:102F80000001F74BF82B000EBB6F010EBA6F0FEF6D
:102F900018F0BCC0D9FFBDC0DAFFDE2A000EDD226A
:102FA00085EF0DF0BAC011F0BBC012F082EC3AF020
:102FB00011C0D0F012C0D1F0BCC0D9FFBDC0DAFF43
:102FC000DECFF6FFDDCFF7FF0800F5500001C06F40
:102FD000C16BD051C01907E1D151C119D8A4F3EF89
:102FE00017F0F5EF17F000EF18F0BCC0D9FFBDC027
:102FF000DAFFDE2A000EDD22F74BF82B85EF0DF00D
:10300000D0C00FF0D1C010F0BAC011F0BBC012F0A8
:10301000CDEC3AF0FF0E0001BB6FFE0EBA6F12004E
:103020005F506010D8B417EF18F019EF18F025EFC3
:1030300018F05FC0D9FF60C0DAFF5DC0DEFF5EC080
:10304000DDFF25EF18F05D4A5E2A010E0001966F44
:103050005DC0D9FF5EC0DAFF200EDE18D8B433EFB2
:1030600018F036EF18F0010E37EF18F0000E9B6FD6
:103070009C6B9B519C11D8A440EF18F042EF18F0C4
:1030800064EF18F0F70E806FFF0E816F5DC0D9FFFF
:103090005EC0DAFFDF50826F82519B6F9C6B9BC0DA
:1030A00083F09CC084F08051832781518423845114
:1030B00009E1050E835DD8A060EF18F062EF18F00B
:1030C00064EF18F0000E966F96C086F0876B8651FD
:1030D0008711D8A46EEF18F070EF18F023EF18F0F6
:1030E000000E986F2D0E9B199C11D8A47AEF18F042
:1030F0007CEF18F082EF18F0010E986F5D4A5E2A9F
:103100008EEF18F02B0E9B199C11D8A48AEF18F0A3
:103110008CEF18F08EEF18F07EEF18F0000EA16F14
:1031200093EF18F0A12BA1515D24D96E000E5E2003
:10313000DA6EDF50D8B49FEF18F0A1EF18F0D1EF9E
:1031400018F0A1515D24D96E000E5E20DA6EDF50BA
:10315000806F0E0EA125F66EF76A060EF7220800A4
:10316000F5508019D8B4B7EF18F0B9EF18F092EF16
:1031700018F0A1515D24D96E000E5E20DA6EDF508A
:10318000806F050EA125F66EF76A060EF72208007D
:10319000F5508019D8B4CFEF18F0D1EF18F092EFB6
:1031A00018F0020EA165D7EF18F0D9EF18F005EF6F
:1031B00019F0000E9D6F000E9E6F800E9F6F7F0EA8
:1031C000A06F5F506010D8B4E8EF18F0EAEF18F085
:1031D000ACEF20F0080EA119D8B4F1EF18F0F3EF1E
:1031E00018F0F5EF18F0030EA16FA1515D24806F68
:1031F000000E5E20816F5FC0D9FF60C0DAFF80C023
:10320000DEFF81C0DDFFACEF20F0000EA16F0AEF02
:1032100019F0A12BA1515D24D96E000E5E20DA6E4B
:10322000DF50D8B416EF19F018EF19F048EF19F085
:10323000A1515D24D96E000E5E20DA6EDF50806FE2
:103240001F0EA125F66EF76A060EF7220800F5504C
:103250008019D8B42EEF19F030EF19F009EF19F0FA
:10326000A1515D24D96E000E5E20DA6EDF50806FB2
:10327000170EA125F66EF76A060EF7220800F55024
:103280008019D8B446EF19F048EF19F009EF19F09A
:10329000030EA119D8A44FEF19F051EF19F0C0EFA8
:1032A00019F01A0E0F6E060E106ED9EC3DF00FC01D
:1032B0009DF010C09EF011C09FF012C0A0F05F50B2
:1032C0006010D8B466EF19F068EF19F0ACEF20F099
:1032D0000001A1515D26000E5E225DC0D9FF5EC0D7
:1032E000DAFF280EDE18D8A478EF19F07AEF19F07B
:1032F000B6EF19F0000EA16F7FEF19F0A12BA151CD
:103300005D24D96E000E5E20DA6EDF50D8B48BEFEC
:1033100019F08DEF19F09CEF19F0A1515D24D96ED1
:10332000000E5E20DA6E290EDE18D8A49AEF19F08E
:103330009CEF19F07EEF19F0A1515D24D96E000EBB
:103340005E20DA6E290EDE18D8A4A9EF19F0ABEFD3
:1033500019F0B6EF19F0A151806F816B010E802733
:10336000000E812380515D2681515E225FC0D9FF0E
:1033700060C0DAFF5DC0DEFF5EC0DDFFACEF20F0B5
:10338000000E9C6F000E9B6F000E9D6F000E9E6FD7
:10339000000E9F6F000EA06F000E9A6F000E996FC7
:1033A000000EA16FD5EF19F0A12BA1515D24D96EAC
:1033B000000E5E20DA6E300EDE18D8B4E2EF19F09F
:1033C000E4EF19F0D4EF19F0A151D8B4EAEF19F0F5
:1033D000ECEF19F089EF1DF0A1515D24D96E000EBC
:1033E0005E20DA6E780EDE18D8B4F9EF19F0FBEF34
:1033F00019F00AEF1AF0A1515D24D96E000E5E207B
:10340000DA6E580EDE18D8A408EF1AF00AEF1AF098
:1034100089EF1DF0A151806F816B010E8027000E96
:10342000812380515D2681515E22000EA16F1AEF2B
:103430001AF0A12BA1515D24D96E000E5E20DA6E28
:10344000300EDE18D8B427EF1AF029EF1AF019EF72
:103450001AF0000EA16FA1515D24D96E000E5E20FE
:10346000DA6E700EDE18D8B438EF1AF03AEF1AF0B0
:10347000CBEF1BF0A1515D24D96E000E5E20DA6EF9
:10348000500EDE18D8A447EF1AF049EF1AF04BEFB0
:103490001AF0CBEF1BF0A1515D24D96E000E5E2017
:1034A000DA6E2E0EDE18D8A458EF1AF05AEF1AF082
:1034B0005EEF1AF09889A12BCBEF1BF0A1515D2490
:1034C000D96E000E5E20DA6EDF50806F80510F6E75
:1034D000106A53EC3BF00F501010D8B472EF1AF092
:1034E00074EF1AF0F1EF1AF0000E0001976FD00E92
:1034F000806FFF0E816FA1515D24D96E000E5E209A
:10350000DA6EDF50826F836B805182278151832373
:1035100083510AE10A0E825DD8A091EF1AF094EF70
:103520001AF0010E95EF1AF0000E886F896B885122
:103530008911D8B49EEF1AF0A0EF1AF0ABEF1AF091
:10354000A1515D24D96E000E5E20DA6EDF50D00FDF
:10355000976FBCEF1AF0A1515D24D96E000E5E206A
:10356000DA6EDF50806F8051156E166AF0EC3BF01A
:103570001550C90F0001976F9CBFCAEF1AF09C51FC
:1035800007E1080E9B5DD8B0C8EF1AF0CAEF1AF039
:10359000E9EF1AF09B510708806FD8908037D890D8
:1035A000803797C081F0826B836B846B802BDEEF5A
:1035B0001AF0D8908137823783378437802FD9EF3C
:1035C0001AF081519D1382519E1383519F13845190
:1035D000A0139B4B9C2B040E9927000E9A23FBEF04
:1035E0001AF0000E5D6E000E5E6E000E5F6E000E35
:1035F000606ECEEF20F0A12B2BEF1AF0A1515D24CD
:10360000D96E000E5E20DA6E700EDE18D8B40BEFA5
:103610001BF00DEF1BF0D2EF1BF0A1515D24D96E12
:10362000000E5E20DA6E500EDE18D8A41AEF1BF0E2
:103630001CEF1BF01EEF1BF0D2EF1BF0A1515D241D
:10364000D96E000E5E20DA6E300EDE18D8A42BEF95
:103650001BF02DEF1BF03CEF1BF09B519C11D8A4ED
:1036600034EF1BF036EF1BF03CEF1BF0FC0E9927FC
:10367000FF0E9A23C9EF1BF0A1515D24D96E000EF5
:103680005E20DA6EDF50806F80510F6E106A53EC4F
:103690003BF00F501010D8B450EF1BF052EF1BF05E
:1036A000C9EF1BF0000E0001976FD00E806FFF0E68
:1036B000816FA1515D24D96E000E5E20DA6EDF505D
:1036C000826F836B805182278151832383510AE16A
:1036D0000A0E825DD8A06FEF1BF072EF1BF0010E97
:1036E00073EF1BF0000E8A6F8B6B8A518B11D8B46D
:1036F0007CEF1BF07EEF1BF089EF1BF0A1515D24E6
:10370000D96E000E5E20DA6EDF50D00F976F9AEF01
:103710001BF0A1515D24D96E000E5E20DA6EDF50E1
:10372000806F8051156E166AF0EC3BF01550C90F92
:103730000001976F9CBFA8EF1BF09C5107E1080E9A
:103740009B5DD8B0A6EF1BF0A8EF1BF0C7EF1BF0F6
:103750009B510708806FD8908037D890803797C0EA
:1037600081F0826B836B846B802BBCEF1BF0D89055
:103770008137823783378437802FB7EF1BF0815131
:103780009D1382519E1383519F138451A0139B4B11
:103790009C2B0001A12B98B9D0EF1BF0D2EF1BF0AE
:1037A000FEEF1AF0A1515D24D96E000E5E20DA6E94
:1037B000700EDE18D8B4DFEF1BF0E1EF1BF0FAEF6C
:1037C0001BF0A1515D24D96E000E5E20DA6E500E02
:1037D000DE18D8B4EEEF1BF0F0EF1BF0FAEF1BF0A1
:1037E000000E5D6E000E5E6E000E5F6E000E606E6F
:1037F000CEEF20F0A12BA1515D24D96E000E5E20EA
:10380000DA6E2B0EDE18D8A408EF1CF00AEF1CF0BD
:103810000DEF1CF0A12B1EEF1CF0A1515D24D96E01
:10382000000E5E20DA6E2D0EDE18D8A41AEF1CF002
:103830001CEF1CF01EEF1CF09887A12BA1515D26F8
:10384000000E5E22000EA16F27EF1CF0A12BA151EC
:103850005D24D96E000E5E20DA6E300EDE18D8B40C
:1038600034EF1CF036EF1CF026EF1CF0000E9C6FBE
:10387000000E9B6F69EF1CF0A151D8B442EF1CF011
:1038800044EF1CF052EF1CF09BC00FF09CC010F0F6
:10389000000E126E0A0E116EC6EC3DF00FC09BF0CA
:1038A00010C09CF0D00E0001806FFF0E816FA151FF
:1038B0005D24D96E000E5E20DA6EDF50826F836B5E
:1038C000805182278151832382519B2783519C23DE
:1038D000A12BD00E806FFF0E816FA1515D24D96E98
:1038E000000E5E20DA6EDF50826F836B805182277C
:1038F0008151832383510AE10A0E825DD8A083EFB0
:103900001CF086EF1CF0010E87EF1CF0000E8C6F90
:103910008D6B8C518D11D8A490EF1CF092EF1CF0A0
:103920003CEF1CF0A151D8A498EF1CF09AEF1CF0CA
:10393000A4EF1CF0000E5D6E000E5E6E000E5F6E5A
:10394000000E606ECEEF20F098A7A9EF1CF0ABEF51
:103950001CF0AFEF1CF09B6D9C1FD8B09C2B9B51B3
:1039600099279C519A235F506010D8B4BAEF1CF08D
:10397000BCEF1CF0CAEF1CF0A1515D24806F000E5B
:103980005E20816F5FC0D9FF60C0DAFF80C0DEFFBC
:1039900081C0DDFF9D519E119F11A011D8A4D3EFCE
:1039A0001CF0D5EF1CF0DFEF1CF0000E5D6E000E7A
:1039B0005E6E000E5F6E000E606ECEEF20F0FF0EAA
:1039C0009D15806F000E9E15816F000E9F15826FF2
:1039D000000EA015836F83518211811109E1810EC0
:1039E000805DD8A0F6EF1CF0F8EF1CF00AEF1DF098
:1039F000000E9D27010E9E23000E9F23000EA02384
:103A00000AEF1DF0D8909D379E379F37A037990752
:103A1000D8A09A07A0AF0FEF1DF011EF1DF002EF35
:103A20001DF09AAF1DEF1DF0830E995DFF0E9A59A0
:103A3000D8B01DEF1DF01FEF1DF02BEF1DF0FF0E96
:103A40009A6F810E996F000E9D6F000E9E6F000E93
:103A50009F6F000EA06F810E991908E19A29D8B4C2
:103A600034EF1DF036EF1DF03EEF1DF0D8909D377E
:103A70009E379F37A0379907D8A09A079ABF4AEF79
:103A80001DF09A5109E1800E995DD8A04AEF1DF012
:103A90004CEF1DF058EF1DF0000E9D6F000E9E6F55
:103AA000000E9F6F000EA06F000E9A6F800E996F30
:103AB000090E806FD890A0339F339E339D33802FA3
:103AC0005AEF1DF0FF0E9D17FF0E9E177F0E9F17DA
:103AD000000EA0177F0E9925806F000E9A21816F2E
:103AE000FF0E8015826F836B846B856B170ED890E9
:103AF0008237833784378537E82E77EF1DF0825180
:103B00009D1383519E1384519F138551A013ACEFD5
:103B100020F098B98EEF1DF090EF1DF0A2EF1DF090
:103B20005DC0D9FF5EC0DAFF2E0EDE18D8A49BEF71
:103B30001DF09DEF1DF0A2EF1DF098895D4A5E2AF1
:103B400089EF1DF0D00E806FFF0E816F5DC0D9FF31
:103B50005EC0DAFFDF50826F836B80518227815114
:103B6000832383510AE10A0E825DD8A0BAEF1DF0CB
:103B7000BDEF1DF0010EBEEF1DF0000E8E6F8F6BBE
:103B80008E518F11D8A4C7EF1DF0C9EF1DF0CBEFF8
:103B90001DF01AEF1EF09883090E9B199C11D8B4E2
:103BA000D4EF1DF0D6EF1DF00DEF1EF098A9DBEF5E
:103BB0001DF0DDEF1DF0E0EF1DF09907D8A09A078A
:103BC0009B4B9C2B9DC00FF09EC010F09FC011F02E
:103BD000A0C012F00A0E136E000E146E000E156EC9
:103BE000000E166E8BEC3BF00FC09DF010C09EF0E7
:103BF00011C09FF012C0A0F05DC0D9FF5EC0DAFF17
:103C0000DF500001806FD00E802780519D27000E6D
:103C10009E239F23A02316EF1EF098B912EF1EF0EB
:103C200014EF1EF016EF1EF0994B9A2B5D4A5E2A98
:103C300089EF1DF0000E9C6F000E9B6F5DC0D9FFD9
:103C40005EC0DAFF650EDE18D8B429EF1EF02BEF48
:103C50001EF038EF1EF05DC0D9FF5EC0DAFF450EE2
:103C6000DE18D8A436EF1EF038EF1EF02AEF1FF052
:103C70005D4A5E2A5DC0D9FF5EC0DAFF2D0EDE18F8
:103C8000D8A445EF1EF047EF1EF04CEF1EF09887CA
:103C90005D4A5E2A5BEF1EF05DC0D9FF5EC0DAFFB1
:103CA0002B0EDE18D8A457EF1EF059EF1EF05BEF75
:103CB0001EF05D4A5E2A5DC0D9FF5EC0DAFF300E9D
:103CC000DE18D8B466EF1EF068EF1EF059EF1EF054
:103CD000D00E0001806FFF0E816F5DC0D9FF5EC006
:103CE000DAFFDF50826F836B8051822781518323FB
:103CF00083510AE10A0E825DD8A081EF1EF084EFA5
:103D00001EF0010E85EF1EF0000E906F916B90512A
:103D10009111D8B48EEF1EF090EF1EF01FEF1FF040
:103D20005DC0D9FF5EC0DAFFDF50806FD00E802704
:103D300080519B6F9C6B5D4A5E2AD00E806FFF0E98
:103D4000816F5DC0D9FF5EC0DAFFDF50826F836B89
:103D5000805182278151832383510AE10A0E825DBB
:103D6000D8A0B5EF1EF0B8EF1EF0010EB9EF1EF0AF
:103D7000000E926F936B92519311D8B4C2EF1EF064
:103D8000C4EF1EF01FEF1FF05DC0D9FF5EC0DAFF69
:103D9000DF50806FD00E80279BC00FF09CC010F0CA
:103DA000000E126E0A0E116EC6EC3DF0000180513D
:103DB0000F249B6F000E10209C6F5D4A5E2AD00E70
:103DC000806FFF0E816F5DC0D9FF5EC0DAFFDF50EC
:103DD000826F836B805182278151832383510AE153
:103DE0000A0E825DD8A0F7EF1EF0FAEF1EF0010E6A
:103DF000FBEF1EF0000E946F956B94519511D8B4A3
:103E000004EF1FF006EF1FF01FEF1FF05DC0D9FF9A
:103E10005EC0DAFFDF50806FD00E80279BC00FF0AE
:103E20009CC010F0000E126E0A0E116EC6EC3DF032
:103E3000000180510F249B6F000E10209C6F98A7EB
:103E400024EF1FF026EF1FF02AEF1FF09B6D9C1F41
:103E5000D8B09C2B9B5199279C519A235F5060109E
:103E6000D8B435EF1FF037EF1FF046EF1FF098A3DF
:103E70003CEF1FF03EEF1FF046EF1FF05FC0D9FF91
:103E800060C0DAFF5DC0DEFF5EC0DDFF9DC036F0C2
:103E90009EC037F09FC038F0A0C039F0000EFAEC99
:103EA00031F036C09DF037C09EF038C09FF039C069
:103EB000A0F09DC00FF09EC010F09FC011F0A0C0F8
:103EC00012F0000E136E000E146E000E156E000E32
:103ED000166E8AEC39F0D8A070EF1FF072EF1FF069
:103EE0007CEF1FF0000E5D6E000E5E6E000E5F6ECA
:103EF000000E606ECEEF20F000019ABF84EF1FF03D
:103F000082EF1FF015EF20F0996D9A1FD8B09A2B11
:103F1000A9EF1FF09DC044F09EC045F09FC046F041
:103F2000A0C047F0F90E486E020E496E150E4A6E9B
:103F3000500E4B6EB3EC29F044C09DF045C09EF08E
:103F400046C09FF047C0A0F00001F60E9927FF0E73
:103F50009A239ABFB7EF1FF09A5107E10A0E995DB5
:103F6000D8B0B5EF1FF0B7EF1FF08AEF1FF0D7EF13
:103F70001FF09DC044F09EC045F09FC046F0A0C019
:103F800047F0000E486E000E496E200E4A6E410E3C
:103F90004B6EB3EC29F044C09DF045C09EF046C086
:103FA0009FF047C0A0F000019907D8A09A07995147
:103FB0009A11D8A4DEEF1FF0E0EF1FF0B9EF1FF069
:103FC0009DC00FF09EC010F09FC011F0A0C012F075
:103FD000000E136E000E146E800E156E000E166E1F
:103FE00059EC37F0D8B0F7EF1FF0F9EF1FF0ACEF56
:103FF00020F0000198A1FFEF1FF001EF20F00BEF80
:1040000020F0000E5D6E000E5E6E800E5F6E800E04
:10401000606ECEEF20F0000E5D6E000E5E6E800EC4
:104020005F6E000E606ECEEF20F09ABF20EF20F0A2
:104030009A5108E19905D8A020EF20F022EF20F056
:10404000ACEF20F043EF20F09DC00FF09EC010F0C9
:104050009FC011F0A0C012F0F90E136E020E146E84
:10406000150E156E500E166EC1EC25F00FC09DF0AA
:1040700010C09EF011C09FF012C0A0F00001F60E1B
:104080009927FF0E9A239A5107E10A0E995DD8B03D
:104090004CEF20F04EEF20F024EF20F06EEF20F0F8
:1040A0009DC00FF09EC010F09FC011F0A0C012F094
:1040B000000E136E000E146E200E156E410E166E5D
:1040C000C1EC25F00FC09DF010C09EF011C09FF014
:1040D00012C0A0F000019907D8A09A0799519A112F
:1040E000D8A475EF20F077EF20F050EF20F0FF0E0E
:1040F0000F6EFF0E106E7F0E116E7F0E126E9DC042
:1041000013F09EC014F09FC015F0A0C016F059EC3B
:1041100037F0D8B08EEF20F090EF20F0ACEF20F029
:10412000000198A196EF20F098EF20F0A2EF20F088
:10413000000E5D6E000E5E6E800E5F6E800E606E15
:10414000CEEF20F0000E5D6E000E5E6E800E5F6E94
:10415000000E606ECEEF20F0000198A1B2EF20F0CB
:10416000B4EF20F0C6EF20F09DC00FF09EC010F01D
:104170009FC011F0A0C012F07CEC3DF00FC09DF08C
:1041800010C09EF011C09FF012C0A0F09DC05DF065
:104190009EC05EF09FC05FF0A0C060F0120020EEF5
:1041A00051F0070EDE6AE806FDE227C059F028C08C
:1041B0005AF059505A10D8B4E0EF20F0E2EF20F056
:1041C00032EF23F059C0D9FF5AC0DAFFDF50D8A42C
:1041D000ECEF20F0EEEF20F0F0EF20F032EF23F0E4
:1041E00059C0D9FF5AC0DAFFDF505B6E00EF21F0F3
:1041F000594A5A2A59C0D9FF5AC0DAFFDF505B6EBC
:10420000010E456E200E5B18D8B409EF21F00BEFBC
:1042100021F023EF21F0F70E2F6EFF0E306E5B5072
:10422000316E326A2F50312630503222325009E13D
:10423000050E315CD8A01FEF21F021EF21F023EF14
:1042400021F0000E456E45C03FF0406A3F504010DF
:10425000D8A42DEF21F02FEF21F0F8EF20F0000E81
:104260004F6E000E466E000E506E2D0E5B18D8A4D9
:104270003CEF21F03EEF21F04AEF21F0010E4F6EAE
:10428000594A5A2A59C0D9FF5AC0DAFFDF505B6E2B
:1042900055EF21F02B0E5B18D8A451EF21F053EF0E
:1042A00021F055EF21F040EF21F0300E5B18D8A43B
:1042B0005CEF21F05EEF21F0A8EF21F0594A5A2A75
:1042C00059C0D9FF5AC0DAFFDF505B6E2B502C105B
:1042D000D8B46DEF21F06FEF21F079EF21F0100EDF
:1042E0002B182C10D8A477EF21F079EF21F099EF5B
:1042F00021F0780E5B18D8B480EF21F082EF21F026
:104300008BEF21F0580E5B18D8A489EF21F08BEFCA
:1043100021F099EF21F0000E2C6E100E2B6E594AF1
:104320005A2A59C0D9FF5AC0DAFFDF505B6EA8EF96
:1043300021F0010E466E2B502C10D8A4A2EF21F0D4
:10434000A4EF21F0A8EF21F0000E2C6E080E2B6ECA
:104350002B502C10D8A4AFEF21F0B1EF21F0B5EF26
:1043600021F0000E2C6E0A0E2B6E2D50D8B4BBEF30
:1043700021F0BDEF21F0E9EF21F04F50D8A4C3EFB9
:1043800021F0C5EF21F0D7EF21F0FF0E476EFF0EB1
:10439000486EFF0E496EFF0E4A6EFF0E4B6EFF0E0B
:1043A0004C6EFF0E4D6E7F0E4E6EF1EF21F0000E43
:1043B000476E000E486E000E496E000E4A6E000EEB
:1043C0004B6E000E4C6E000E4D6E800E4E6EF1EF79
:1043D00021F04768486849684A684B684C684D68EE
:1043E0004E6851C037F052C038F053C039F054C055
:1043F0003AF055C03BF056C03CF057C03DF058C0B5
:104400003EF09F0E2F6EFF0E306E5B50316E326AA3
:10441000200E3112000E32122F503126305032222F
:1044200032500AE11A0E315CD8A019EF22F01CEFCD
:1044300022F0010E1DEF22F0000E416E426A415043
:104440004210D8B426EF22F028EF22F032EF22F00B
:104450005BC015F0166AF0EC3BF01550C90F5B6EAF
:1044600057EF22F0D00E2F6EFF0E306E5B50316E84
:10447000326A2F5031263050322232500AE10A0E71
:10448000315CD8A046EF22F049EF22F0010E4AEF4E
:1044900022F0000E436E446A43504410D8B453EFE8
:1044A00022F055EF22F012EF23F0300E5B5E5B50EE
:1044B0002F6E306A2B502F5C3050800A316E2C509A
:1044C000800A3158D8A067EF22F069EF22F06BEF35
:1044D00022F012EF23F05050D8A471EF22F073EFC6
:1044E00022F006EF23F02BC00FF02CC010F0000ECE
:1044F00010BEFF0E116E126E136E146E156E166ED8
:1045000051C017F052C018F053C019F054C01AF03F
:1045100055C01BF056C01CF057C01DF058C01EF00F
:1045200033EC3AF00FC02FF010C030F011C031F072
:1045300012C032F013C033F014C034F015C035F09F
:1045400016C036F05B502F24516E000E3020526E94
:10455000000E3120536E000E3220546E000E3320B8
:10456000556E000E3420566E000E3520576E000E2C
:104570003620586E3750515C385052583950535885
:104580003A5054583B5055583C5056583D50575847
:104590003E505858D8A0CFEF22F0D1EF22F0F0EFE4
:1045A00022F02D50D8B4D7EF22F0D9EF22F006EF49
:1045B00023F05150475C525048585350495854507A
:1045C0004A5855504B5856504C5857504D585850C3
:1045D0004E58D8B0EEEF22F0F0EF22F006EF23F0C5
:1045E00047C051F048C052F049C053F04AC054F09F
:1045F0004BC055F04CC056F04DC057F04EC058F06F
:10460000000E666E220E656E010E506E594A5A2AD1
:1046100059C0D9FF5AC0DAFFDF505B6E010E466EFB
:10462000F1EF21F05050D8A418EF23F01AEF23F047
:1046300032EF23F04F50D8B420EF23F022EF23F0D5
:1046400032EF23F0581E571E561E551E541E531E81
:10465000521E516C000E52225322542255225622D1
:104660005722582229502A10D8B439EF23F03BEFB3
:1046700023F04FEF23F04650D8A441EF23F043EF4F
:1046800023F047EF23F027C059F028C05AF029C083
:10469000D9FF2AC0DAFF59C0DEFF5AC0DDFF51C082
:1046A00027F052C028F053C029F054C02AF055C05A
:1046B0002BF056C02CF057C02DF058C02EF0120031
:1046C00000018351800B886F835183258A6F82AFED
:1046D0006CEF23F06EEF23F06FEF23F08A818A51A5
:1046E000D8B475EF23F077EF23F08CEF23F08A290D
:1046F000D8A47DEF23F07FEF23F087EF23F0000EA7
:10470000806F000E816F000E826F000E836F828FAC
:10471000000E836F94EF23F0000E806F000E816F08
:10472000000E826F000E836F8751800B896F885156
:104730008919D8B49EEF23F0A0EF23F0A1EF23F066
:10474000888D87518725896F86AFA9EF23F0ABEF5E
:1047500023F0ACEF23F089818951D8B4B2EF23F074
:10476000B4EF23F0C9EF23F08929D8A4BAEF23F0DE
:10477000BCEF23F0C4EF23F0000E846F000E856FB2
:10478000000E866F000E876F868F000E876FD1EF49
:1047900023F0000E846F000E856F000E866F000EF2
:1047A000876F8A51895DD8B0D8EF23F0DAEF23F014
:1047B00001EF24F088ADDFEF23F0E1EF23F0E3EF2A
:1047C00023F0800E881B8AC08BF089C08AF08BC0D2
:1047D00089F080C08BF084C080F08BC084F081C0F1
:1047E0008BF085C081F08BC085F082C08BF086C0D5
:1047F00082F08BC086F083C08BF087C083F08BC0C3
:1048000087F0000E8B6F8A5189C05DF05E6A5D5E35
:10481000000E5E5A5EBE16EF24F05E5009E11A0EDD
:104820005D5CD8A016EF24F018EF24F04FEF24F0D1
:104830008051811182118311D8A421EF24F024EF3B
:1048400024F0010E25EF24F0000E8B6F000E806F18
:10485000000E816F000E826F000E836F89C08AF098
:1048600058EF24F08BA137EF24F039EF24F03FEF1D
:1048700024F0D8908B3101098B6F41EF24F0D89050
:104880008B3380A146EF24F048EF24F049EF24F069
:104890008B8F833583338233813380338A2B8951E5
:1048A0008A5DD8A056EF24F058EF24F032EF24F0C0
:1048B00088BD5DEF24F05FEF24F09FEF24F08A5174
:1048C000D8A465EF24F067EF24F071EF24F0000E18
:1048D000806F000E816F000E826F000E836FC0EF3D
:1048E00025F0845180278551812386518223875169
:1048F000832383A17EEF24F080EF24F02CEF25F0BA
:104900008BA185EF24F087EF24F08DEF24F0D89071
:104910008B3101098B6F8FEF24F0D8908B3380A1FE
:1049200094EF24F096EF24F097EF24F08B8F8335EB
:1049300083338233813380338A2B2CEF25F08451EB
:10494000805D85518159865182598351800A5D6EFF
:104950008751800A5D58D8B0B0EF24F0B2EF24F050
:10496000DDEF24F08051845D5D6E815185595E6E6E
:10497000825186595F6E83518759606EFF0E5D24A8
:10498000806FFF0E5E20816FFF0E5F20826FFF0E33
:104990006020836F800E881B8B6D8B51D8A4D3EF62
:1049A00024F0D5EF24F0E5EF24F0010E8027000E6F
:1049B000812382238323E5EF24F08451805F855196
:1049C000815B8651825B8751835B805181118211AB
:1049D0008311D8A4EEEF24F0F0EF24F025EF25F0BA
:1049E0008B51D8A4F6EF24F0F8EF24F025EF25F052
:1049F000000E806F000E816F000E826F000E836FBD
:104A0000C0EF25F0D89080378137823783378BAF5E
:104A10000CEF25F00EEF25F00FEF25F080818BA134
:104A200014EF25F016EF25F01AEF25F0D8808B371C
:104A30001CEF25F0D8908B378A51D8B422EF25F09F
:104A400024EF25F025EF25F08A0782AF2AEF25F025
:104A50002CEF25F002EF25F0000E896F8BAF33EFBE
:104A600025F035EF25F04DEF25F08BC05DF07F0E82
:104A70005D16D8B43EEF25F040EF25F044EF25F069
:104A8000010E896F4DEF25F080A149EF25F04BEF26
:104A900025F04DEF25F040EF25F08951D8B453EFC4
:104AA00025F055EF25F080EF25F0010E8027000E50
:104AB00081238223832383A160EF25F062EF25F019
:104AC00080EF25F080C05DF081C05EF082C05FF0B5
:104AD00083C060F0603460325F325E325D325DC050
:104AE00080F05EC081F05FC082F060C083F08A29F0
:104AF000D8B47DEF25F07FEF25F080EF25F08A2BED
:104B00008A29D8B486EF25F088EF25F090EF25F0BC
:104B10008A51D8A48EEF25F090EF25F0A2EF25F072
:104B2000000E806F000E816F000E826F000E836F8B
:104B30008A51D8A49EEF25F0A0EF25F0A2EF25F032
:104B4000000E886F8AA1A7EF25F0A9EF25F0ACEF42
:104B500025F0828FADEF25F0829FD8908A31836F48
:104B600088AFB5EF25F0B7EF25F0B8EF25F0838FCC
:104B700080C080F081C081F082C082F083C083F069
:104B800012001250800B1B6E12501224216E11AEB7
:104B9000CCEF25F0CEEF25F0CFEF25F0218021508E
:104BA000D8B4D5EF25F0D7EF25F0EAEF25F021288E
:104BB000D8A4DDEF25F0DFEF25F0E7EF25F0000EBC
:104BC0000F6E000E106E000E116E000E126E118E22
:104BD000F2EF25F0000E0F6E000E106E000E116E3B
:104BE000000E126E1650800B1B1A165016241C6EE7
:104BF00015AEFDEF25F0FFEF25F000EF26F01C804D
:104C00001C50D8B406EF26F008EF26F01BEF26F074
:104C10001C28D8A40EEF26F010EF26F018EF26F08F
:104C2000000E136E000E146E000E156E000E166E42
:104C3000158E23EF26F0000E136E000E146E000E7C
:104C4000156E000E166E1C50D8B429EF26F02BEF0F
:104C500026F033EF26F02150D8A431EF26F033EFC1
:104C600026F03DEF26F0000E0F6E000E106E000EC7
:104C7000116E000E126ED5EF27F015500F02F3CF14
:104C800026F0F4CF27F026501D6E1E6A1F6A206A98
:104C90002750226E236A246A256A14501002F3CF2B
:104CA00026F0F4CF27F026501D26000E1E221F22CC
:104CB000202227502226000E2322242225221350B0
:104CC0001102F3CF26F0F4CF27F026501D26000E58
:104CD0001E221F22202227502226000E23222422B9
:104CE00025221FC020F01EC01FF01DC01EF01D6A2F
:104CF00013501002F3CF26F0F4CF27F026501D26D4
:104D000027501E22000E1F22000E202214500F02D8
:104D1000F3CF26F0F4CF27F026501D2627501E2271
:104D2000000E1F22000E20221FC020F01EC01FF008
:104D30001DC01EF01D6A13500F02F3CF26F0F4CFF2
:104D400027F026501D2627501E22000E1F22000E7F
:104D5000202215501002F3CF26F0F4CF27F0265072
:104D6000222627502322000E2422000E2522145032
:104D70001102F3CF26F0F4CF27F026502226275039
:104D80002322000E2422000E252215501102F3CFFB
:104D900026F0F4CF27F02650176E2750186E196AA8
:104DA0001A6A19C01AF018C019F017C018F0176A5B
:104DB0001750222618502322195024221A50252237
:104DC0001DC017F01EC018F01FC019F020C01AF047
:104DD000190EF0EF26F0D8901A3219321832173225
:104DE000E82EEBEF26F017502226185023221950F8
:104DF00024221A5025221FC020F01EC01FF01DC003
:104E00001EF01D6A1C5021C017F0186A1726000EEC
:104E10001822820E1724266EFF0E1820276E26EF0A
:104E200027F0D890223623362436253620AE1BEFC5
:104E300027F01DEF27F01EEF27F02280D8901D36B7
:104E40001E361F3620362606D8A0270624AE2BEFA6
:104E500027F02DEF27F011EF27F0000E1C6E20AE8B
:104E600034EF27F036EF27F05AEF27F0FF0E1D142E
:104E7000176EFF0E1E14186EFF0E1F14196E7F0E94
:104E800020141A6E1750181019101A10D8B44BEFBE
:104E900027F04DEF27F051EF27F0010E1C6E5AEF6F
:104EA00027F022A056EF27F058EF27F05AEF27F00F
:104EB0004DEF27F01C50D8B460EF27F062EF27F0D9
:104EC00086EF27F0010E2226000E2322242225221F
:104ED00025A06DEF27F06FEF27F086EF27F022C0B7
:104EE00017F023C018F024C019F025C01AF01A34A6
:104EF0001A3219321832173217C022F018C023F0B4
:104F000019C024F01AC025F0264A272A27BE91EF9F
:104F100027F0275008E12628D8A091EF27F093EF3B
:104F200027F09DEF27F0000E226E000E236E800EFC
:104F3000246E7F0E256ECBEF27F027BEAAEF27F059
:104F4000275006E12604D8B0A8EF27F0AAEF27F0F3
:104F5000B6EF27F0000E226E000E236E000E246EB8
:104F6000000E256E000E1B6ECBEF27F026C021F041
:104F7000FF0E2216FF0E23167F0E2416000E251696
:104F800021A0C5EF27F0C7EF27F0C8EF27F0248E48
:104F9000D8902130256E1B50251222C00FF023C05F
:104FA00010F024C011F025C012F0120000C1A6F0CC
:104FB00001C1A7F002C1A8F003C1A9F094C0A6F0F6
:104FC00095C0A7F096C0A8F097C0A9F0A6C098F029
:104FD000A7C099F0A8C09AF0A9C09BF0180EF7EFEF
:104FE00027F00001D8909B339A3399339833E82EF9
:104FF000F1EF27F09851A06FA16BA1BF09EF28F046
:10500000A15109E1960EA05DD8A009EF28F00BEFA1
:1050100028F015EF28F094C094F095C095F096C054
:1050200096F097C097F0B2EF29F0A6C098F0A7C00D
:1050300099F0A8C09AF0A9C09BF0200E25EF28F0A7
:10504000D8909B339A3399339833E82E20EF28F089
:10505000985199119A119B11D8B431EF28F033EF80
:1050600028F045EF28F094C00FF095C010F096C0DE
:1050700011F097C012F07CEC3DF00FC094F010C01E
:1050800095F011C096F012C097F00001A1BF54EF47
:1050900028F0A15107E17E0EA05DD8B052EF28F0B4
:1050A00054EF28F070EF28F0A6C00FF0A7C010F062
:1050B000A8C011F0A9C012F0000E136E000E146EFD
:1050C000000E156E000E166EC1EC25F00FC094F0A8
:1050D00010C095F011C096F012C097F0B2EF29F011
:1050E000000E846F000E856F000E866F4B0E876F6B
:1050F00094C080F095C081F096C082F097C083F094
:1051000060EC23F080C0A2F081C0A3F082C0A4F0C4
:1051100083C0A5F0000E0001846F000E856F000EA5
:10512000866FCB0E876FA2C080F0A3C081F0A4C0B1
:1051300082F0A5C083F060EC23F080C09CF081C0B9
:105140009DF082C09EF083C09FF09CC08CF09DC0FB
:105150008DF09EC08EF09FC08FF094C090F095C0EF
:1051600091F096C092F097C093F048EC3CF08CC060
:10517000AAF08DC0ABF08EC0ACF08FC0ADF0000EC9
:105180000F6E000E106E000E116E3F0E126EAAC052
:1051900013F0ABC014F0ACC015F0ADC016F059EC74
:1051A00037F0D8B0D6EF28F0D8EF28F00FEF29F07D
:1051B00094C084F095C085F096C086F097C087F0C3
:1051C000AAC080F0ABC081F0ACC082F0ADC083F06B
:1051D00060EC23F080C0A2F081C0A3F082C0A4F0F4
:1051E00083C0A5F0A2C080F0A3C081F0A4C082F06B
:1051F000A5C083F0000E0001846F000E856F800E45
:10520000866FBF0E876F60EC23F080C0AAF081C06C
:10521000ABF082C0ACF083C0ADF079EF29F0000EA6
:105220000F6E000E106E000E116EBF0E126EAAC031
:1052300013F0ABC014F0ACC015F0ADC016F059ECD3
:1052400037F0D8A026EF29F028EF29F05FEF29F0FA
:1052500094C084F095C085F096C086F097C087F022
:10526000AAC080F0ABC081F0ACC082F0ADC083F0CA
:1052700060EC23F080C0A2F081C0A3F082C0A4F053
:1052800083C0A5F0A2C080F0A3C081F0A4C082F0CA
:10529000A5C083F0000E0001846F000E856F800EA4
:1052A000866F3F0E876F60EC23F080C0AAF081C04C
:1052B000ABF082C0ACF083C0ADF079EF29F0AAC0AA
:1052C00080F0ABC081F0ACC082F0ADC083F094C080
:1052D00084F095C085F096C086F097C087F060ECAA
:1052E00023F080C0AAF081C0ABF082C0ACF083C0D4
:1052F000ADF0A6C098F0A7C099F0A8C09AF0A9C0D8
:105300009BF0200E8AEF29F00001D8909B339A334E
:1053100099339833E82E84EF29F0985199119A1116
:105320009B11D8B496EF29F098EF29F0AAEF29F055
:10533000AAC00FF0ABC010F0ACC011F0ADC012F0BD
:105340007CEC3DF00FC0AAF010C0ABF011C0ACF087
:1053500012C0ADF0AAC094F0ABC095F0ACC096F00E
:10536000ADC097F012004750800B546E4750472451
:105370005B6E46AEBEEF29F0C0EF29F0C1EF29F019
:105380005B805B50D8B4C7EF29F0C9EF29F0DEEF9E
:1053900029F05B28D8A4CFEF29F0D1EF29F0D9EF7D
:1053A00029F0000E446E000E456E000E466E000E93
:1053B000476E468E000E476EE6EF29F0000E446EF3
:1053C000000E456E000E466E000E476E4B50800B71
:1053D000541A4B504B245C6E4AAEF1EF29F0F3EFB8
:1053E00029F0F4EF29F05C805C50D8B4FAEF29F092
:1053F000FCEF29F011EF2AF05C28D8A402EF2AF084
:1054000004EF2AF00CEF2AF0000E486E000E496EF1
:10541000000E4A6E000E4B6E4A8E000E4B6E19EF58
:105420002AF0000E486E000E496E000E4A6E000E05
:105430004B6E485049104A104B10D8A422EF2AF066
:1054400024EF2AF03CEF2AF0000E446E000E456E69
:10545000000E466E000E476E800E46127F0E4712FB
:105460005450471244C044F045C045F046C046F091
:1054700047C047F07FEF2BF05B50D8A442EF2AF0F3
:1054800044EF2AF04EEF2AF0000E446E000E456EF7
:10549000000E466E000E476E7FEF2BF05C505BC037
:1054A0004CF04D6A4C5E000E4D5A7F0E4C24556EEA
:1054B000000E4D20566E44C050F045C051F046C01D
:1054C00052F047C053F0000E446E000E456E000EC1
:1054D000466E000E476E000E576E000E586E000EA0
:1054E000596E000E5A6E000E5C6EAFEF2AF05C50E3
:1054F000D8B47DEF2AF07FEF2AF096EF2AF0D8900B
:105500005036513652365336D890443645364636A4
:1055100047365AAE8EEF2AF090EF2AF091EF2AF03C
:105520004480D8905736583659365A364850505CD1
:10553000495051584A5052584B505358D8A0A3EF95
:105540002AF0A5EF2AF0AEEF2AF05A8C4850505EB0
:105550004950515A4A50525A4B50535A5C2A190ECC
:105560005C64B5EF2AF0B7EF2AF077EF2AF05050DD
:10557000511052105310D8B4C0EF2AF0C2EF2AF0E5
:10558000DAEF2AF05780DAEF2AF0D8904436453621
:10559000463647365AAECFEF2AF0D1EF2AF0D2EF97
:1055A0002AF04480D8905736583659365A36550620
:1055B000D8A0560646AEDFEF2AF0E1EF2AF0C5EF9D
:1055C0002AF0000E5C6E5AAEE8EF2AF0EAEF2AF0FD
:1055D0000EEF2BF0FF0E57144C6EFF0E58144D6E4D
:1055E000FF0E59144E6E7F0E5A144F6E4C504D10D4
:1055F0004E104F10D8B4FFEF2AF001EF2BF005EF5B
:105600002BF0010E5C6E0EEF2BF044A00AEF2BF096
:105610000CEF2BF00EEF2BF001EF2BF05C50D8B419
:1056200014EF2BF016EF2BF03AEF2BF0010E44267F
:10563000000E45224622472247A021EF2BF023EF00
:105640002BF03AEF2BF044C04CF045C04DF046C073
:105650004EF047C04FF04F344F324E324D324C3245
:105660004CC044F04DC045F04EC046F04FC047F02E
:10567000554A562A56BE45EF2BF0565008E155289C
:10568000D8A045EF2BF047EF2BF052EF2BF0000E98
:10569000566E5568000E446E000E456E000E466E46
:1056A000000E476E56BE5FEF2BF0565006E15504D4
:1056B000D8B05DEF2BF05FEF2BF06DEF2BF0000E0D
:1056C000566E000E556E000E446E000E456E000EB6
:1056D000466E000E476E000E546E55C05BF05BA028
:1056E00074EF2BF076EF2BF079EF2BF0468E7AEFFC
:1056F0002BF0469ED8905B30476E30EF2AF01200B8
:10570000FAEC3DF0000E956E000E8C6E10EC3EF043
:105710001AEC3EF0F40E0001AE6F010EAF6F000EFA
:10572000B06F000EB16F1DEC31F0AEC0DCF1AFC058
:10573000DDF111EC3BF0880E116E010E126E2CECB7
:105740003EF00FC013F010C014F0CEEC3CF0000E91
:105750000101E76F000EE66FE64BE72BE7BFBAEFFC
:105760002BF0880EE65D130EE759D8A0BAEF2BF0A8
:10577000BCEF2BF0ACEF2BF027EC3EF00FC0CCF1E0
:1057800010C0CDF15B0E0101CE6F060ECF6FC80EBB
:10579000D06F010ED16F0BEC3DF031EC3EF00FC03D
:1057A000CCF110C0CDF15B0E0101CE6F060ECF6FB4
:1057B000C40ED06F010ED16F0BEC3DF00101CBBFD9
:1057C000E4EF2BF0E6EF2BF0EAEF2BF0050E8C6EFA
:1057D000F3EF2BF0CBBFF1EF2BF0EFEF2BF0F3EF6C
:1057E0002BF00A0E8C6E11EC3BF0000E486E000E92
:1057F000496E800E4A6E400E4B6E000E136EC00E48
:10580000146E7F0E156E440E166EC8C10FF0C9C11E
:1058100010F0CAC111F0CBC112F0C1EC25F00FC0DD
:1058200028F010C029F011C02AF012C02BF0D6ECDD
:1058300036F028C032F029C033F0AEEC3CF032C074
:1058400036F033C037F0000E37BEFF0E386E396EBB
:10585000010EFAEC31F036C044F037C045F038C0E4
:1058600046F039C047F0B3EC29F044C0E2F145C03E
:10587000E3F146C0E4F147C0E5F1E2C144F0E3C121
:1058800045F0E4C146F0E5C147F0330E486E330EF3
:10589000496E230E4A6E400E4B6EB3EC29F044C0A5
:1058A000DEF145C0DFF146C0E0F147C0E1F1DEC105
:1058B0008CF0DFC18DF0E0C18EF0E1C18FF0DCC172
:1058C00090F0DDC191F05BEC38F0000E486E000EF8
:1058D000496E800E4A6E400E4B6E000E136EC00E67
:1058E000146E7F0E156E440E166EC8C10FF0C9C13E
:1058F00010F0CAC111F0CBC112F0C1EC25F00FC0FD
:1059000028F010C029F011C02AF012C02BF0D6ECFC
:1059100036F028C032F029C033F0AEEC3CF032C093
:1059200036F033C037F0000E37BEFF0E386E396EDA
:10593000010EFAEC31F036C044F037C045F038C003
:1059400046F039C047F0B3EC29F044C0E2F145C05D
:10595000E3F146C0E4F147C0E5F1E2C144F0E3C140
:1059600045F0E4C146F0E5C147F0330E486E330E12
:10597000496E230E4A6E400E4B6EB3EC29F044C0C4
:10598000DEF145C0DFF146C0E0F147C0E1F1DEC124
:105990008CF0DFC18DF0E0C18EF0E1C18FF0DCC191
:1059A00090F0DDC191F0DBEC37F09BEF2BF03FEF97
:1059B00000F0A2C01AF0A3C01BF0DFEC39F0635076
:1059C0006410D8A4E6EF2CF0E8EF2CF0EFEF2CF009
:1059D000000E0001AF6F4F0EAE6FF3EF2CF063C0FF
:1059E000AEF064C0AFF0000E0001B36F000EB26FF6
:1059F000B2C0B6F0B3C0B7F0B6C0ACF0B7C0ADF04F
:105A0000ACC0AAF0ADC0ABF0D4EF2DF0A2C011F045
:105A1000A3C012F082EC3AF011C0B8F012C0B9F095
:105A20000001B82906E1B929D8A419EF2DF01BEF20
:105A30002DF021EF2DF0B8C0A2F0B9C0A3F02BEFEC
:105A40002EF0B251B311D8A428EF2DF02AEF2DF08B
:105A500050EF2DF02B0EB819B911D8B432EF2DF04C
:105A600034EF2DF03EEF2DF02D0EB819B911D8A45A
:105A70003CEF2DF03EEF2DF050EF2DF0000EB36F08
:105A8000010EB26F060EB625D96E010EB721DA6E81
:105A9000B8C0DFFFB64BB72BF74BF82BD4EF2DF088
:105AA000AA51AB11D8A457EF2DF059EF2DF069EFA3
:105AB0002DF02E0EB819B911D8A461EF2DF063EFB7
:105AC0002DF069EF2DF0000EAB6F010EAA6F42EFC3
:105AD0002DF0AC51AD11D8A470EF2DF072EF2DF078
:105AE000A4EF2DF0650EB819B911D8B47AEF2DF0E6
:105AF0007CEF2DF09AEF2DF0450EB819B911D8B4FE
:105B000084EF2DF086EF2DF09AEF2DF0700EB8197E
:105B1000B911D8B48EEF2DF090EF2DF09AEF2DF053
:105B2000500EB819B911D8A498EF2DF09AEF2DF0B6
:105B3000A4EF2DF0000EAD6F010EAC6F000EB36F31
:105B4000000EB26F42EF2DF0D00EA66FFF0EA76FC2
:105B5000B8C0A8F0B9C0A9F0A651A827A751A92399
:105B6000A9510AE10A0EA85DD8A0B9EF2DF0BCEF4B
:105B70002DF0010EBDEF2DF0000EB06FB16BB051E6
:105B8000B111D8A4C6EF2DF0C8EF2DF042EF2DF0E3
:105B9000B8C00FF0B9C010F0A2C011F0A3C012F04D
:105BA000CDEC3AF0EEEF2DF0AE51B65DB751800A74
:105BB000A66FAF51800AA659D8B0E1EF2DF0E3EF00
:105BC0002DF0EEEF2DF0B75109E14F0EB65DD8A0E4
:105BD000ECEF2DF0EEEF2DF006EF2DF0060E0001AC
:105BE000B625D96E010EB721DA6E000EDF6E060EF5
:105BF0005D6E010E5E6EB40E5F6E000E606E10EC98
:105C000018F0A4C0D9FFA5C0DAFF5DC0DEFF5EC0FA
:105C1000DEFF5FC0DEFF60C0DEFF65506610D8A407
:105C200014EF2EF016EF2EF026EF2EF00001B651F5
:105C3000B711D8B41EEF2EF020EF2EF026EF2EF085
:105C4000000EA36F010EA26F2BEF2EF0FF0E0001CE
:105C5000A36FFE0EA26F12005CC01AF05DC01BF0B5
:105C6000DFEC39F063506410D8A439EF2EF03BEF2D
:105C70002EF042EF2EF0000E0001936F4F0E926F48
:105C800046EF2EF063C092F064C093F0000E000166
:105C9000976F000E966FC3EF2EF05CC011F05DC0E1
:105CA00012F082EC3AF011C098F012C099F00001A5
:105CB000982906E19929D8A460EF2EF062EF2EF022
:105CC00068EF2EF098C05CF099C05DF035EF2FF0D2
:105CD00096519711D8A46FEF2EF071EF2EF093EF3D
:105CE0002EF02B0E98199911D8B479EF2EF07BEF86
:105CF0002EF085EF2EF02D0E98199911D8A483EF70
:105D00002EF085EF2EF093EF2EF0060E9625D96E2D
:105D1000010E9721DA6E98C0DFFF964B972BF74B59
:105D2000F82BC3EF2EF0D00E886FFF0E896F98C04E
:105D30008AF099C08BF088518A2789518B238B5127
:105D40000AE10A0E8A5DD8A0A8EF2EF0ABEF2EF084
:105D5000010EACEF2EF0000E946F956B94519511DF
:105D6000D8A4B5EF2EF0B7EF2EF085EF2EF098C047
:105D70000FF099C010F05CC011F05DC012F0CDECD6
:105D80003AF0DDEF2EF09251965D9751800A886FC0
:105D90009351800A8859D8B0D0EF2EF0D2EF2EF070
:105DA000DDEF2EF0975109E14F0E965DD8A0DBEFA5
:105DB0002EF0DDEF2EF04DEF2EF0060E00019625B1
:105DC000D96E010E9721DA6E000EDF6E060E806F1F
:105DD000010E816F900E826F000E836F000E856F33
:105DE0000A0E846F6CEC3CF080C088F081C089F0B2
:105DF00082C08AF083C08BF084C08CF085C08DF0A7
:105E000086C08EF087C08FF05EC0D9FF5FC0DAFF1A
:105E100088C0DEFF89C0DEFF8AC0DEFF8BC0DEFFE8
:105E20008CC0DEFF8DC0DEFF8EC0DEFF8FC0DEFFC8
:105E300065506610D8A41FEF2FF021EF2FF031EF3F
:105E40002FF0000196519711D8B429EF2FF02BEFC6
:105E50002FF031EF2FF0000E5D6E010E5C6E35EF0E
:105E60002FF0FF0E5D6EFE0E5C6E12005CC01AF02D
:105E70005DC01BF0DFEC39F063506410D8A443EF31
:105E80002FF045EF2FF04CEF2FF0000E0001936F35
:105E90004F0E926F50EF2FF063C092F064C093F0FA
:105EA000000E0001976F000E966FCDEF2FF05CC0D3
:105EB00011F05DC012F082EC3AF011C098F012C0FF
:105EC00099F00001982906E19929D8A46AEF2FF0EA
:105ED0006CEF2FF072EF2FF098C05CF099C05DF07E
:105EE0003FEF30F096519711D8A479EF2FF07BEF68
:105EF0002FF09DEF2FF02B0E98199911D8B483EF46
:105F00002FF085EF2FF08FEF2FF02D0E98199911AC
:105F1000D8A48DEF2FF08FEF2FF09DEF2FF0060E0E
:105F20009625D96E010E9721DA6E98C0DFFF964B49
:105F3000972BF74BF82BCDEF2FF0D00E886FFF0E7D
:105F4000896F98C08AF099C08BF088518A2789514F
:105F50008B238B510AE10A0E8A5DD8A0B2EF2FF095
:105F6000B5EF2FF0010EB6EF2FF0000E946F956B8A
:105F700094519511D8A4BFEF2FF0C1EF2FF08FEF00
:105F80002FF098C00FF099C010F05CC011F05DC008
:105F900012F0CDEC3AF0E7EF2FF09251965D975169
:105FA000800A886F9351800A8859D8B0DAEF2FF0B1
:105FB000DCEF2FF0E7EF2FF0975109E14F0E965DE0
:105FC000D8A0E5EF2FF0E7EF2FF057EF2FF0060EF8
:105FD00000019625D96E010E9721DA6E000EDF6E54
:105FE000060E806F010E816F900E826F000E836F20
:105FF000000E856F0A0E846F8DEC3CF080C088F037
:1060000081C089F082C08AF083C08BF084C08CF09C
:1060100085C08DF086C08EF087C08FF05EC0D9FF3E
:106020005FC0DAFF88C0DEFF89C0DEFF8AC0DEFF06
:106030008BC0DEFF8CC0DEFF8DC0DEFF8EC0DEFFBA
:106040008FC0DEFF65506610D8A429EF30F02BEF2B
:1060500030F03BEF30F0000196519711D8B433EF98
